:100000000C94474A0C94784A0C94784A0C94784A99
:100010000C94784A0C94784A0C94784A0C94784A58
:100020000C94784A0C94784A0C94784A0C94784A48
:100030000C94784A0D94C22B0C94784A0C94784A0C
:100040000C94784A0C9494CF0C94784A0C94784A87
:100050000C94784A0C94784A0C94057A0C94D9ED57
:100060000C94784A0D94B21D0C94784A0C94784AFA
:100070000C94784A0C94784A0C94784A0C94784AF8
:100080000C94784A0C94784A0C94784A0C94784AE8
:100090000C94784A0C94784A0C94784A0C94784AD8
:1000A0000C94784A0C94784A0C94784A0C94784AC8
:1000B0000C94784A0C94784A0C94784A0C94784AB8
:1000C0000C94784A0C94784A0C94784A0C94784AA8
:1000D0000C94784A0C94784A0D94891D0C94784AB3
:1000E0000C94784A280128011601160116010C010A
:1000F0000C010C011E010E010E010E01040106018E
:1001000032011201FC0000010A0118012401200142
:10011000100122012A017CCF5CCF7FCF5FCF62CF5D
:100120006ECF65CF7ACF68CF6BCF56E959E948E9F2
:100130004CE952E990E95DE961E967E96BE96FE94A
:1001400075E979E97DE990E983E987E98BE976EC5E
:10015000A0ECA2ECAFECB4EC74ECBDECF5ECFAEC7A
:10016000FFEC09ED13ED8CED1DED25ED2DED37EDDB
:1001700041ED4BED5AED64ED8CED6EED78ED82EDD9
:1001800018F19EF49EF49EF49EF49EF49EF49EF468
:100190009EF49EF49EF49EF49EF49EF49EF49EF4CF
:1001A0009EF47DF4A7F29EF475F1A0F10FF43FF3F5
:1001B000EFF3D2F32FF44FF49EF49EF462F39EF427
:1001C0009EF49EF411F305F2D6F19EF472F23FF123
:1001D000B7F305A84CCDB2D44EB93836A9020C50AD
:1001E000B9918688083CA6AAAA2ABE000000803FD2
:1001F0000D94F8060D946E290D9485320D9418090E
:100200000D9492320D94A4070D9408320D9432325D
:100210000D94FB290D94BB320D94942E0D949B2EBE
:100220000D9427330D945C320D9441060D948D2E60
:100230000D94C8320D949A060D94B8350D94A12EE4
:100240000D94FE320D9434330D94F1320D94530815
:100250000D94862E0D945E330D94C0230D942C05C1
:100260000D9492350D944F324E414E494E4954599A
:10027000494E46CDCCCC3D0AD7233C17B7D1387771
:10028000CC2B329595E6241FB14F0A000020410087
:1002900000C84200401C4620BCBE4CCA1B0E5AAED1
:1002A000C59D74434F4D4D554E49434154494F4EA2
:1002B0000044525952554E004552524F5253004934
:1002C0004E464F004543484F00536C6565702E2ED7
:1002D0002E000A0A426564204C6576656C20436FE7
:1002E0007272656374696F6E204D61747269783AD9
:1002F00000206732395F6D6561737572653A200061
:10030000202844525952554E290047323920417510
:10031000746F20426564204C6576656C696E670079
:100320003F2856296572626F7365206C6576656C2F
:1003300020697320696D706C61757369626C6520EA
:1003400028302D34292E0A00205A3A200020593A0C
:10035000200042656420583A200057616974206685
:100360006F7220757365722E2E2E004E6F206D6F8A
:1003700076652E00456E642066696C65206C697335
:10038000740A00426567696E2066696C65206C6955
:1003900073740A004D3132350043757272656E74A4
:1003A0002066696C653A20005072696E7420746929
:1003B0006D653A2000C402BF02B802B102A3026F09
:1003C00066660044454255473A004B494C4C45440B
:1003D0002E20006F6B00556C74696D61746532205E
:1003E0004F66662E002C20002C2000544845524DAC
:1003F000414C5F50524F54454354494F4E00415574
:10040000544F5245504F52545F53445F53544154DC
:10041000555300454D455247454E43595F50415253
:1004200053455200434153455F4C494748545F424E
:1004300052494748544E45535300544F47474C4543
:100440005F4C494748545300534F46545741524517
:100450005F504F574552004255494C445F504552FA
:1004600043454E54004C4556454C494E475F444128
:100470005441005A5F50524F4245004155544F4C31
:100480004556454C005052494E545F4A4F42005029
:10049000524F4752455353004155544F5245504FC8
:1004A00052545F54454D5000564F4C554D45545293
:1004B000494300454550524F4D0053455249414C28
:1004C0005F584F4E5F584F4646004649524D574180
:1004D00052455F4E414D453A4D61726C696E204602
:1004E00049524D574152455F56455253494F4E3A36
:1004F000322E322E382048415244574152455F56E1
:10050000455253494F4E3A312E3520534F555243A1
:10051000455F434F44455F55524C3A68747470735D
:100520003A2F2F6769746875622E636F6D2F4D6166
:10053000726C696E4669726D776172652F4D61727A
:100540006C696E2050524F544F434F4C5F5645528A
:1005500053494F4E3A312E30204D414348494E4584
:100560005F545950453A556C74696D617465322019
:1005700045585452554445525F434F554E543A31B5
:1005800020555549443A63656465326132662D34BD
:100590003161322D343734382D396231322D6335A3
:1005A000356336326633363766660A002F2F2000F1
:1005B0004D31343520533C696E6465783E206F754B
:1005C00074206F662072616E67652028302D312996
:1005D0000A00205400205200416363656C6572611B
:1005E00074696F6E3A20500020466C6F773A200095
:1005F0000001363726FF02FFFFFF3C3D38FF29FF91
:10060000FFFF2E303E1213FFFFFFFFFFFF0809FF21
:10061000FFFF1A1C18FFFFFF08440A074350726FC0
:100620006265205A204F66667365743A200043293C
:100630000A0061626C656420286D696E2074656DC6
:10064000702000436F6C6420657874727564657304
:100650002061726520004E6F2063617365206C69B4
:100660006768740A00454550524F4D204F4B0A00B1
:100670003A200050726F6265205A204F666673659B
:1006800074003F5A206F7574206F662072616E6728
:100690006520282D323020746F203230290A004125
:1006A00063746976652045787472756465723A2062
:1006B00000496E76616C6964206578747275646552
:1006C000720A004572726F722077726974696E6780
:1006D00020746F20454550524F4D210A004545502A
:1006E000524F4D206461746173697A65206572723E
:1006F0006F722E0A00290A002062797465733B200C
:10070000637263200053657474696E677320537459
:100710006F726564202800290A002062797465736D
:100720003B2063726320002073746F7265642073D2
:10073000657474696E677320726574726965766535
:1007400064202800202863616C63756C61746564A3
:1007500029210A0020213D2000454550524F4D20BF
:10076000435243206D69736D61746368202D2028A6
:1007700073746F7265642920002053697A653A208A
:1007800000496E6465783A2000204D61726C696E94
:100790003D563536290A0028454550524F4D3D00FB
:1007A000454550524F4D2076657273696F6E206DCE
:1007B00069736D61746368200000000A0B02090C04
:1007C0000D0E0807030401000000000000000000F7
:1007D0000000000000000000000000000000000019
:1007E00000000000001211100000000000000000D6
:1007F00000000000000000000000000000000000F9
:1008000000000000000000000000000000000000E8
:1008100000000000000000000000000000000000D8
:1008200000000000000000000000000000000000C8
:1008300000000000000000000000000000000000B8
:1008400000000000000000000000000000000000A8
:100850000000000000000000000000000000000098
:100860000000000000000000000000000000000088
:100870000000000000000000000000FFFC07FFE097
:100880003FFF80FFE000000000FFFC07FFE03FFFAC
:1008900080FFF800000000FFFC07FFE03FFF80FF43
:1008A000FC00000000FFFC07FFE03FFF80FFFC00B2
:1008B0000000000780003C0001E000F07C00000028
:1008C000000780003C0001E000F03C000000000751
:1008D00080003C0001E000F03C00000000078000C8
:1008E0003C0001E000F03C000000000780003C00FC
:1008F00001E000F07C000000000780003C0001E007
:1009000000FFFC000000000780003C0001E000FF49
:10091000F8000000000780003C0001E000FFE0005C
:100920000000000780003C0001E000FF80000000A4
:10093000000780003C0001E000F00000000000071C
:1009400080003C0001E000F0000000000007800093
:100950003C0001E000F000000000000780003C00C7
:1009600001E000F000000000000780003C0001E012
:1009700000F00000000000FFFC07FFE03FFF80F0F8
:100980000000000000FFFC07FFE03FFF80F00000D8
:10099000000000FFFC07FFE03FFF80F000000000C8
:1009A00000FFFC07FFE03FFF80F0000000000000B8
:1009B0000000000000000000000000000000000037
:1009C0000000000000000000000000000000000027
:1009D0000000000000000000000000000000000017
:1009E0000000000000000000000000000000000007
:1009F00000000000000000000000000000000000F7
:100A000000000000000000000000000000000000E6
:100A10000000000000000000000000000047323825
:100A2000205A20463330300D0A4D313800573130CE
:100A300030002020506C616E6E657242756666658E
:100A40007242797465733A20002046726565204DC4
:100A5000656D6F72793A2000436F6D70696C6564E3
:100A60003A204F637420323320323031390A00206B
:100A70007C20417574686F723A20286E6F6E652C09
:100A80002064656661756C7420636F6E66696729A2
:100A90000A00323031392D30342D303100204C6194
:100AA000737420557064617465643A2000322E328C
:100AB0002E380A004D61726C696E0020536F6674A7
:100AC000776172652052657365740A0020576174FE
:100AD0006368646F672052657365740A0020427210
:100AE0006F776E206F75742052657365740A0020ED
:100AF00045787465726E616C2052657365740A0086
:100B0000506F77657255700A0073746172740A00D1
:100B10006175746F25692E67006572726F72207738
:100B2000726974696E6720746F2066696C650A006B
:100B3000456E6473746F70732025632025632025D0
:100B40006320256300205A3A0020593A0020583A81
:100B500000656E6473746F7073206869743A200066
:100B60002052656164792E00000000000000000042
:100B700000000000A4A5A6A70000000000000000DF
:100B800000000000000000002070726574652E00F7
:100B900000000000000000000000000020626572FC
:100BA0006569740000000000000000000000000003
:100BB000206C697374612E000000000000000000CA
:100BC000000000002070726F6E746F2E0000000035
:100BD00000000000000000002072656164792E00B2
:100BE000000000000000000000000000506C617474
:100BF00065206C6576656C20636F6D706C657465DF
:100C0000004D3138004731205831363020593136C7
:100C100030204633303030004731205A31353020D3
:100C20004635303000536F6C656E6F6964207072AA
:100C30006F62652068656967687400776169742010
:100C4000666F72206E6F7A7A6C65206D6F766500C4
:100C50004731205A30204635303000473120583156
:100C60003030205931313020463330303000473178
:100C7000205A3130005370696E20726967687420A1
:100C800066726F6E74206E75740077616974206689
:100C90006F72206E6F7A7A6C65206D6F7665004793
:100CA00031205A3020463530300047312058313716
:100CB0003520593130204633303030004731205A0A
:100CC0003130005370696E206C6566742066726FF7
:100CD0006E74206E7574007761697420666F72207F
:100CE0006E6F7A7A6C65206D6F7665004731205A99
:100CF00030204635303000473120583235205931C8
:100D000030204633303030004731205A31300053E4
:100D100070696E206C656674206261636B206E750D
:100D200074007761697420666F72206E6F7A7A6CD6
:100D300065206D6F7665004731205A30204635308A
:100D4000300047312058323520593134382046336D
:100D5000303030004731205A3130005370696E20F6
:100D60007269676874206261636B206E75740077C6
:100D700061697420666F72206E6F7A7A6C65206D7F
:100D80006F7665004731205A3020463530300047B5
:100D900031205831373520593134382046333030FE
:100DA0003000506C617465206C6576656C207374DE
:100DB0006172742E2E2E004731205A352046353070
:100DC0003000473238205A004731205A3135302020
:100DD000463530300047323800573230390057320C
:100DE000303300446F6E6520736176696E672066EC
:100DF000696C652E0A004D32390047312058313276
:100E00003020593935204631353030007C3C3E5E4B
:100E10002B3D3F2F5B5D3B2C2A225C0070012C0197
:100E200090012701B0012201C0011D01F00118014C
:100E30001002130130020E01600209019002040148
:100E4000C002FF000003FA004003F5008003F00039
:100E5000D003EB002004E6007004E100E004DC00B5
:100E60004005D700C005D2004006CD00D006C8001E
:100E70008007C3003008BE00F008B900C009B40004
:100E8000B00AAF00B00BAA00D00CA500000EA00065
:100E9000500F9B00C01096005012910000148C005F
:100EA000C0158700B0178200B0197D00D01B7800F4
:100EB000001E730040206E0090226900F024640040
:100EC00040275F0090295A00E02B5500102E50005B
:100ED00020304B0010324600E033410090353C009A
:100EE0001037370070383200A0392D00B03A280092
:100EF000A03B2300603C1E00103D1900903D1400F3
:100F0000103E0F00703E0A00C03E0500003F00008A
:100F1000403FFBFF803FF6FFC03FF1FF45312054CB
:100F20004845524D414C2052554E4157415900427F
:100F3000454420544845524D414C2052554E41574E
:100F4000415900546865726D616C2052756E61770D
:100F50006179004531204572723A204D415854451F
:100F60004D50004572723A204D415854454D502025
:100F7000424544004D415854454D502074726967B4
:100F80006765726564004531204572723A204D49AB
:100F90004E54454D50004572726F723A2054656D43
:100FA00070204D696E20506C6174004D494E54455F
:100FB0004D5020747269676765726564004D3834FE
:100FC00020582059205A204500202F002042403A26
:100FD0000020403A0000060900FE0701920321208C
:100FE0007FFF07FF07FF000000060000010707065C
:100FF000020080808080800080030202060105A03C
:10100000A00507070600005050F850F8505005079B
:10101000070600002078A07028F0200507070600CA
:1010200000C0C8102040981805070706000060900F
:10103000A040A89068020303060104C04080030793
:10104000070601002040808080402003070706013A
:10105000008040202020408005050506000120A8D2
:1010600070A8200505050600012020F820200203B5
:10107000030602FFC04080050101060003F80202DA
:1010800002060200C0C00505050600010810204048
:101090008005070706000070888888888870030725
:1010A0000706010040C040404040E0050707060039
:1010B00000708808708080F8050707060000F810A7
:1010C00020100808F005070706000010305090F8BF
:1010D0001010050707060000F880F0080888700562
:1010E0000707060000708080F088887005070706F3
:1010F0000000F808102020202005070706000070D7
:1011000088887088887005070706000070888878CE
:10111000080870020505060200C0C000C0C0020633
:10112000060602FFC0C000C040800407070600009A
:1011300010204080402010050303060002F800F84C
:1011400004070706010080402010204080050707A3
:101150000600007088081020002005070706000020
:1011600070880868A8A870050707060000708888BE
:10117000F8888888050707060000F08888F08888C6
:10118000F0050707060000708880808088700507DA
:1011900007060000F08888888888F00507070600A1
:1011A00000F88080F08080F8050707060000F880CE
:1011B00080F0808080050707060000708880B8886E
:1011C0008870050707060000888888F888888801E5
:1011D0000707060200808080808080800507070660
:1011E00000003810101010906005070706000088F6
:1011F00090A0C0A09088050707060000808080802E
:101200008080F805070706000088D8A888888888A5
:101210000507070600008888C8A89888880507077A
:101220000600007088888888887005070706000017
:10123000F08888F0808080050707060000708888A5
:1012400088A89068050707060000F08888F0A0903D
:1012500088050707060000788080700808F00507F9
:1012600007060000F82020202020200507070600A0
:1012700000888888888888700507070600008888A5
:101280008888885020050707060000888888888895
:10129000A850050707060000888850205088880558
:1012A00007070600008888885020202005070706C9
:1012B0000000F80810204080F8030707060100E04E
:1012C0008080808080E005050506000180402010B8
:1012D00008030707060100E02020202020E0050386
:1012E00003060004205088050101060000F80202F0
:1012F0000206020580400505050600007008788892
:10130000780507070600008080B0C88888F00505CA
:101310000506000070808088700507070600000839
:101320000868988888780505050600007088F880A8
:10133000700507070600003048E0404040400506C1
:10134000060600FF70888878087005070706000009
:101350008080B0C888888801070706020080008066
:10136000808080800308080601FF200020202020C4
:10137000A040040707060000808090A0C0A0900352
:101380000707060100C04040404040E00505050653
:101390000000D0A8A8A8A8050505060000B0C888C8
:1013A000888805050506000070888888700506068F
:1013B0000600FFF08888F080800506060600FF78AA
:1013C0008888780808050505060000B0C880808078
:1013D00005050506000070807008F0040707060088
:1013E000004040E040404030050505060000888888
:1013F000889868050505060000888888502005053E
:10140000050600008888A8A8500505050600008884
:10141000502050880506060600FF888888780870E6
:10142000050505060000F8102040F803070706012F
:1014300000204040804040200107070602008080D5
:1014400080808080800307070601008040402040A4
:1014500040800502020600026890000000060000BD
:10146000000C0B00FE070192032120FFFF0AFF077B
:10147000FF00000006000A010707060200808080C6
:1014800080800080030202060105A0A00507070670
:1014900000005050F850F850500507070600002093
:1014A00078A07028F020050707060000C0C81020AB
:1014B0004098180507070600006090A040A89068B3
:1014C000020303060104C040800307070601002051
:1014D00040808080402003070706010080402020D4
:1014E00020408005050506000120A870A8200505FC
:1014F000050600012020F820200203030602FFC099
:101500004080050101060003F8020202060200C045
:10151000C0050505060001081020408005070706E4
:101520000000708898A8C88870030707060100406B
:10153000C040404040E00507070600007088087082
:101540008080F8050707060000F81020100808F052
:1015500005070706000010305090F8101005070727
:10156000060000F880F008088870050707060000EC
:10157000708080F0888870050707060000F8081062
:1015800020202020050707060000708888708888C2
:101590007005070706000070888878080870020543
:1015A00005060200C0C000C0C00206060602FFC059
:1015B000C000C040800407070600001020408040A3
:1015C0002010050303060002F800F80407070600D0
:1015D000008040201020408005070706000070882A
:1015E000081020002005070706000070880868A87A
:1015F000A870050707060000708888F888888805A5
:101600000707060000F08888F08888F005070706BD
:10161000000070888080808870050707060000F051
:101620008888888888F0050707060000F88080F021
:101630008080F8050707060000F88080F080808031
:10164000050707060000708880B8888870050707BE
:10165000060000888888F888888801070706020045
:101660008080808080808005070706000038101089
:10167000101090600507070600008890A0C0A09099
:1016800088050707060000808080808080F80507B5
:101690000706000088D8A8888888880507070600FC
:1016A000008888C8A8988888050707060000708801
:1016B0008888888870050707060000F08888F08011
:1016C000808005070706000070888888A890680554
:1016D0000707060000F08888F0A090880507070635
:1016E0000000788080700808F0050707060000F801
:1016F00020202020202005070706000088888888F1
:101700008888700507070600008888888888502028
:101710000507070600008888888888A850050707FD
:1017200006000088885020508888050707060000BA
:1017300088888850202020050707060000F8081038
:10174000204080F8030707060000E080808080804A
:10175000E005050506000180402010080307070684
:101760000000E02020202020E005030306000420E4
:101770005088050101060000F802020206020580F9
:1017800040050505060000700878887805070706FB
:1017900000008080B0C88888F0050505060000704C
:1017A0008080887005070706000008086898888808
:1017B000780505050600007088F8807005070706A3
:1017C00000003048E0404040400506060600FF703B
:1017D00088887808700507070600008080B0C888F0
:1017E00088880107070602008000808080808003CF
:1017F00008080601FF200020202020A04004070741
:10180000060100808090A0C0A09003070706010099
:10181000C04040404040E0050505060000D0A8A8B3
:10182000A8A8050505060000B0C888888805050534
:1018300006000070888888700506060600FFF0889C
:1018400088F080800506060600FF788888780808FA
:10185000050505060000B0C8808080050505060066
:101860000070807008F00407070600004040E04068
:101870004040300505050600008888889868050501
:1018800005060000888888502005050506000088A8
:1018900088A8A85005050506000088502050880536
:1018A00006060600FF88888878087005050506008A
:1018B00000F8102040F80307070601002040408090
:1018C00040402001070706020080808080808080E1
:1018D00003070706010080404020404080050202C7
:1018E000060003689000000006000A0000000600E1
:1018F0000A00000006000A00000006000A0B0B1692
:101900000C00FE7C8004800480048004E0088008D1
:10191000803080C08000800080090B160C02FEF42D
:101920008014801480148017802480248044808454
:1019300080048004800A0C180C01FE00407C4004E6
:10194000400440044005C0084010402040C0400012
:10195000400040090B160C02FEF8800B8008801333
:1019600080E08000007F8000807F8040003F800911
:101970000B160C02FEF88008800B8010802380C0BC
:101980008000003F00408040803F00090B160C02A1
:10199000FEF28012801E801280128022802E8042F1
:1019A000808280028002800A0A140C01FF7F80007E
:1019B000800080008000800880088008800800FF88
:1019C000C0090A140C02FFFF000100010001000120
:1019D000000100010001000100FF800A0B160C014C
:1019E000FE7C400440044004400440084010402075
:1019F00040C04000400040090B160C02FEFC800471
:101A000080048004801880E08000003F0040804017
:101A1000803F00090B160C02FEFC802480248024E9
:101A2000802780248024804880988000800080095E
:101A30000A140C02FFFF0011001100110011001127
:101A400000110011000000FF800A0A140C01FF4081
:101A5000004000400040003F8000000400040004FB
:101A600000FFC00A0B160C01FE8000800080007F82
:101A7000C000000000FFC0040004000400040009CE
:101A80000B160C01FE8080808080808080808080AA
:101A90008080807E800080008000800A0B160C0110
:101AA000FEFE8080808080808080C0808080807EFC
:101AB000800080008000800A0B160C01FEFD408132
:101AC000408140814081C08140814081407D400112
:101AD0004001400A0B160C01FEFE40804080408011
:101AE0004083C08040804080407E40004000400AEB
:101AF0000B160C01FEF9408140814081408F4081EE
:101B000040814081407940014001400A0A140C01A3
:101B1000FF7F8040004000400040003F8000000404
:101B2000000400FFC00A0B160C01FE7F804000403D
:101B3000003F800400FFC000003F00408040803F25
:101B4000000A0B160C01FE7E40404040403E40081B
:101B500040FF4000007FC0404040403FC00A0A14A0
:101B60000C01FF7F8040004000400040003F8000AB
:101B70000000000000FFC0090B160C02FEF8808078
:101B800080808080808080808080807C8000800059
:101B90008000800A0B160C01FEFE408040804080D1
:101BA000407E40004000003F80404040403F800B6E
:101BB0000B160C01FEFC8004800480FC8080E08019
:101BC0008080807E800080008000800A0B160C01DF
:101BD000FEF94009400940F9408740814081407D3D
:101BE000400140014001400A0B160C01FEFC40047C
:101BF00040FDC0804080407E4000007FC00040002B
:101C00004000400A0B160C01FE7F80008000807FA0
:101C100080400040003F80000004000400FFC00A34
:101C20000B160C01FE7F80008000807F804000400A
:101C3000003F80000012001200FFC00A0B160C01CA
:101C4000FE7F8000807F8040003F800000FFC00456
:101C5000000400040004000A0B160C01FE7F800043
:101C60008000807F80400040003F80000000000036
:101C700000FFC00A0B160C01FEFC4004400440FCAF
:101C8000408040804080407E400040004000400B4B
:101C90000B160C01FEFC8084808480848084E084A8
:101CA0008084807C800080008000800A0B160C01FC
:101CB000FEF940894089408F4089408940894079B8
:101CC000400140014001400A0B160C01FEF9408919
:101CD000408F4089408940794000004000400040EA
:101CE000003FC00A0B160C01FEFC4085C0844085F5
:101CF000C084407C4000004000400040003FC00ADB
:101D00000A140C01FF7F8040804080408040803F6B
:101D100080000004000400FFC00A0B160C01FEFC4A
:101D2000408440844084408440844084407C40001F
:101D300040004000400A0B160C01FE8440844084A1
:101D400040FC4085C0844084407C4000400040000E
:101D5000400A0B160C01FE84408440FDC084408480
:101D6000407C40000040407FC040403FC00A0B160E
:101D70000C01FE894089408940FF408940894089A3
:101D80004079400140014001400A0B160C01FE89D8
:101D9000408940FF408940794000007FC000407F7B
:101DA000C040003FC00A0B160C01FE844085C0FCF9
:101DB0004085C084407C4000004000400040003F1F
:101DC000C00A0A140C01FF408040807F80408040A0
:101DD0008040803F8004000400FFC00A0B160C0105
:101DE000FE40807F8040807F800400FFC000007F35
:101DF000800080008000800A0B160C01FE424042E9
:101E0000407E40424042403E4008400840FF400083
:101E10004000400B0B160C01FE108010801080104B
:101E20008028E02880448044808280008000800BED
:101E30000B160C01FE1080108010E0288044808278
:101E400080000040807F8040803F800B0B160C019B
:101E5000FE1080108010E028804480828000003FC7
:101E600000408040803F000A0B160C01FE1040101D
:101E70004011C028404440824000004000400040E3
:101E8000003FC0090B160C02FE20802080238050EA
:101E90008088800000FF800080FF8080007F800AB3
:101EA0000B160C01FE11401140114011402F40292A
:101EB00040454045408340014001400A0B160C015B
:101EC000FE11401140174029404540834000000466
:101ED0000004001B0060C00A0B160C01FE1040112C
:101EE000C0104029C04440824000004000400040F3
:101EF000003FC0090B160C02FE080008003600C1A6
:101F0000800800FF800000FF8000800080008009C2
:101F10000A140C02FF0800080014002200C180000F
:101F200000000000000000FF80090B160C02FE08F4
:101F30000008003600C1800000FF8000008080FFA4
:101F40008080807F80090B160C01FE1080108010AD
:101F50008010802880288044804480828000800017
:101F600080090B160C01FE108010802880448082AE
:101F70008000007F8000807F8040003F800B0B1638
:101F80000C01FE7880848084E084808480788000E6
:101F9000007F80408040803F800B0B160C01FE7854
:101FA00080848084E0848084807880000040807F0A
:101FB0008040803F800A0B160C01FE7140894089E9
:101FC000C0894089407140000040407FC040403F90
:101FD000C00A0B160C01FE78408440844084408582
:101FE000C08440844084407840004000400A0B1682
:101FF0000C01FE7840844085C084408440784000D5
:10200000004000400040003FC00A0B160C01FE7863
:1020100040844085C0844084407840000040407F38
:10202000C040403FC00B0B160C01FE784084408539
:10203000C0844084407840000044807C8045403E1D
:10204000200A0B160C01FE7840844085C084408431
:102050004085C0844084407840004000400A0B1610
:102060000C01FE784085C08440844085C0784000E3
:10207000004000400040003FC00A0B160C01FE78F3
:102080004085C0844085C0784000007FC000407F0C
:10209000C040003FC00A0B160C01FE784085C0848A
:1020A00040844085C0784000003F80404040403F31
:1020B00080090A140C01FF1C00220041004100228B
:1020C000001C00000008000800FF800A0B160C012D
:1020D000FE3F00408040803F000800FFC0000040FD
:1020E00000400040003F80090B160C01FE3F0040FD
:1020F0008040803F000800FF80000040807F8040DB
:10210000803F800B0B160C01FE7C80828082E07C7D
:10211000801080FE8000008000800080007F8009A9
:102120000A140C01FF1C0022004100410022001C87
:1021300000000022002200FF800A0B160C01FE3F67
:1021400000408040803F000000FFC0040044004089
:102150000040003F800A0B160C01FE3C4042403D0F
:10216000C00040FF40084008404840400040003F59
:10217000C0090B160C02FE788084808480848078ED
:10218000800080FE8010801080108010800A0B1666
:102190000C01FE3F0040803F000000FFC000007FB8
:1021A0008000807F8040003F800A0B160C01FE3FBC
:1021B00000408040803F000000FFC000007F804062
:1021C0008040803F800A0B160C01FE7840844084DA
:1021D00040844084408440844084407840004000F3
:1021E000400A0B160C01FE784084408440844084F1
:1021F00040784000007FC00040004000400A0B16BD
:102200000C01FE7840844084408440844078400043
:10221000004000400040003FC00A0B160C01FE7851
:1022200040844084408440784000007FC000407F6C
:10223000C040003FC00A0B160C01FE784084408469
:1022400040844084407840000040407FC040403F90
:10225000C00B0B160C01FEFE801080108010802831
:10226000E02880448044808280008000800B0B1630
:102270000C01FEFE80108010E028804480828000E7
:10228000007F800080008000800B0B160C01FEFE9A
:1022900080108010E028804480828000007F804091
:1022A0008040803F800B0B160C01FEFE80108010DA
:1022B000E028804480828000003F00408040803FD2
:1022C000000A0B160C01FEFD40114011401140297F
:1022D000C02940454045404540014001400A0B1699
:1022E0000C01FEFE4010401040104029C028404420
:1022F0004044408240004000400A0B160C01FEFEA4
:1023000040104011C028404440824000004000403E
:102310000040003FC00A0B160C01FEFE40104011A9
:10232000C028404440824000003F80404040403F41
:10233000800A0B160C01FEFD401140114017402988
:1023400040294045404540814001400140090A1470
:102350000C01FF7F00080008001400220041000863
:102360000008000800FF80090B160C01FEFF800822
:10237000001400E3800000FF8008008800800080D7
:10238000007F80090B160C01FEFF8008001400E39B
:10239000800000FF8008007F00808080807F00092F
:1023A0000B160C01FEFF800800F7800000FF800084
:1023B00000FF800080FF8080007F80090B160C01E9
:1023C000FEFE801080108010802880288044804489
:1023D00080828000800080090B160C01FEFE8010B8
:1023E00080108028804480828000007F8040804070
:1023F000803F800B0A140C01FF0E0000007FC00418
:10240000000A00110064C004000400FFE00A0B167B
:102410000C01FE1E000000FFC00C001200618000D5
:1024200000FFC00400040004000A0B160C01FE1E8D
:102430000000007F800C0073800000FFC004007F5C
:1024400080008000800A0B160C01FE0400FFC00C07
:10245000007380FFC004007F8000807F8040003FC9
:10246000800A0B160C01FE38400040FE4010401060
:10247000401040284024404240804000400A0B1653
:102480000C01FEF90009000900F90009C011001152
:10249000002100C100010001000A0B160C01FEFA28
:1024A0004082408240FBC08240824082407A4002AB
:1024B00040024002400A0B160C01FEF2408240F33B
:1024C000C0824082407A4000007FC000400040004F
:1024D00040090B160C01FEF88080808080F8808314
:1024E000808080808078800080008000800A0A14CC
:1024F0000C01FF7F8040007F80400040003F800053
:102500000004000400FFC00A0A140C01FF7F804091
:102510000040007F80400040003F8000000000FF3E
:10252000C00A0B160C01FE7F8040007F8040003FF8
:10253000800000FFC00000400040007F800B0B16B1
:102540000C01FEFC8000804880488048E0488048BC
:1025500080FC800080008000800A0B160C01FEFDCC
:102560004001404940494049C049404940FD40017F
:1025700040014000400A0B160C01FEFD400140499D
:102580004049C04940FD4001404140400040003FBB
:10259000C00A0C180C01FE00407E40244024402458
:1025A00040FF4008403FC000403FC020003FC00CFB
:1025B0000B160C01FE38400040FE400040384044FD
:1025C00070444044404440384000400B0B160C011E
:1025D000FE38800080FEE0288044804480388020DF
:1025E000803F8020801F800A0B160C01FE314001C5
:1025F00040FDC0314049404940314000001F80202B
:10260000401F800A0B160C01FE1E000000FFC01EBA
:10261000002100210021001E0004000400FFC00B67
:102620000B160C01FE38800080FE80288044E044B8
:102630008038801080FE80008000800B0B160C011B
:10264000FE1080FE802880448044E038801080FEA8
:1026500080400040003F800A0B160C01FE1E000067
:1026600000FFC0330040803F000000FFC0040004B2
:102670000004000A0B160C01FEFE80808080C080E2
:102680008080807E8000004000400040003F80004D
:1026900000060900FE070191032220FFFF08FE0744
:1026A000FF0000000600000107070602008080808E
:1026B00080800080030202060105A0A0050707062E
:1026C00000005050F850F850500507070600002051
:1026D00078A07028F020050707060000C0C8102069
:1026E0004098180507070600006090A040A8906871
:1026F000020303060104C04080030707060100200F
:102700004080808040200307070601008040202091
:1027100020408005050506000120A870A8200505B9
:10272000050600012020F820200203030602FFC056
:102730004080050101060003F8020202060200C003
:10274000C0050505060001081020408005070706A2
:102750000000708898A8C888700307070601004029
:10276000C040404040E00507070600007088087040
:102770008080F8050707060000F81020100808F010
:1027800005070706000010305090F81010050707E5
:10279000060000F880F008088870050707060000AA
:1027A000304080F0888870050707060000F80810A0
:1027B0002020202005070706000070888870888880
:1027C0007005070706000070888878081060020509
:1027D00005060200C0C000C0C00206060602FFC017
:1027E000C000C04080040707060000102040804061
:1027F0002010050303060002F800F804070706018D
:1028000000804020102040800507070600007088E7
:10281000081020002005060606000070880868A839
:1028200070050707060000708888F8888888050703
:1028300007060000F08888F08888F0050707060082
:102840000070888080808870050707060000E0908F
:1028500088888890E0050707060000F88080F080EF
:1028600080F8050707060000F88080F0808080056A
:102870000707060000708880B8888870050707067B
:102880000000888888F88888880107070602008089
:1028900080808080808005070706000038101010B7
:1028A0001090600507070600008890A0C0A09088DF
:1028B000050707060000808080808080F8050707F4
:1028C00006000088D8A888888888050707060000C1
:1028D0008888C8A898888805070706000070888837
:1028E00088888870050707060000F08888F08080D7
:1028F0008005070706000070888888A8906805078B
:1029000007060000F08888F0A090880507070600F9
:1029100000788080700808F0050707060000F8209E
:102920002020202020050707060000888888888846
:102930008870050707060000888888888850200569
:1029400007070600008888888888A85005070706BA
:1029500000008888502050888805070706000088F6
:10296000888850202020050707060000F80810205E
:102970004080F8030707060100E08080808080E047
:102980000507070600008850F820F82020030707F5
:10299000060100E02020202020E0050303060004BB
:1029A000205088050101060000F802020206020517
:1029B000804005050506000070087888780507073F
:1029C0000600008080B0C88888F005050506000074
:1029D00070808088700507070600000808689888DE
:1029E00088780505050600007088F88070050707DF
:1029F0000600003048E0404040400506060600FF63
:102A00007088887808700507070600008080B0C8C5
:102A10008888880107070602008000808080808007
:102A20000308080601FF200020202020A040040702
:102A300007060000808090A0C0A090030707060151
:102A400000C04040404040E0050505060000D0A819
:102A5000A8A8A8050505060000B0C888888805054F
:102A60000506000070888888700506060600FFF0DD
:102A70008888F080800506060600FF788888780838
:102A800008050505060000B0C8808080050505061C
:102A9000000070807008F00507070600004040E065
:102AA000404048300505050600008888889868057C
:102AB00005050600008888885020050505060000E9
:102AC0008888A8A850050505060000885020508871
:102AD0000506060600FF8888887808700505050643
:102AE0000000F8102040F8030707060100204040CE
:102AF000804040200107070602008080808080809F
:102B00008003070706010080404020404080050503
:102B1000050600012010F81020050505060001201B
:102B200040F8402000000006000000000006000001
:102B30000000000600000000000600000000000683
:102B40000000000000060000000000060000000079
:102B50000006000000000006000000000006000063
:102B60000000000600000000000600000000000653
:102B70000000000000060000000000060000000049
:102B80000006000000000006000000000006000033
:102B90000000000600000000000600000000000623
:102BA0000000000000060000000000060000000019
:102BB0000006000000000006000000000006000003
:102BC00000000006000000000006000000000006F3
:102BD00000000000000600000000000600000000E9
:102BE00000060000000000060000030303060000CA
:102BF000E0A0E0030404060203E0808080030404F4
:102C0000060000202020E00303030600008040208F
:102C1000020202060102C0C0050606060000F8080E
:102C2000F8081020050505060000F80830204004CB
:102C30000505060000102060A0200505050600001F
:102C400020F8880830050404060000F82020F80564
:102C5000050506000010F830509005050506000037
:102C600040F8485040050404060000701010F804B5
:102C70000505060000F010F010F005040406000041
:102C8000A8A80830050101060003F805070706009B
:102C900000F808283020204005070706000008102B
:102CA0002060A0202005070706000020F88888087B
:102CB0001020050606060000F820202020F8050751
:102CC0000706000010F810305090100507070600A6
:102CD0000040F8484848489005070706000020F8DB
:102CE00020F82020200506060600007848880810F5
:102CF00060050707060000407890101010200506B8
:102D000006060000F808080808F80507070600008E
:102D100050F85050102040050606060000C008C8B4
:102D20000810E0050606060000F808102050880587
:102D3000070706000040F8485040403805060606E0
:102D400000008888480810600506060600007848DC
:102D5000A818106005070706000010E020F82020E2
:102D600040050606060000A8A8A8081020050707C9
:102D70000600007000F8202020400307070601002D
:102D8000808080C0A080800507070600002020F812
:102D9000202040800506060600007000000000F8B4
:102DA000050606060000F8085020508005070706B3
:102DB000000020F8102070A820030707060100205B
:102DC000202020204080050606060000201088886C
:102DD00088880507070600008080F88080807805D5
:102DE0000606060000F8080808106005050506003C
:102DF0000140A010080805070706000020F8202061
:102E0000A8A820050606060000F8080850201004AF
:102E10000606060100E000E000E0100506060600D8
:102E20000020408088F808050606060000080850C3
:102E3000205080050606060000F840F8404038059E
:102E400007070600004040F84850404005070706C5
:102E50000000701010101010F8050606060000F8AB
:102E600008F80808F80507070600007000F80808C9
:102E70001020040707060000909090901020400555
:102E8000060606000020A0A0A8A8B00507070600B7
:102E9000008080808890A0C0050606060000F888A3
:102EA000888888F8050606060000F888880810203B
:102EB000050606060000C000080810E0040303062B
:102EC0000004209040030303060004E0A0E0050591
:102ED0000506000148A89090680507070600005005
:102EE0000070087888780408080601FF609090E078
:102EF0009090E080050505060000708060887005F0
:102F000006060600FF888898E88880050505060003
:102F10000078A09088700507070600FE3048888872
:102F2000F080800508080600FE7888888878080800
:102F300070050505060001382020A04004030306A3
:102F4000000310D0100408080600FF100030101015
:102F5000109060030303060004A040A005070706C5
:102F600000002070A0A0A870200507070600004000
:102F700040E040E040780507070600007000B0C858
:102F800088888805070706000050007088888870C8
:102F90000507070600FFB0C88888F080800507078E
:102FA0000600FF689888887808080506060600006D
:102FB0007088F888887005030306000258A8D005B9
:102FC000050506000070888850D805070706000030
:102FD00050008888889868050707060000F8804038
:102FE000204080F8050505060000F850505098056F
:102FF0000707060000F800885020508805070706DC
:1030000000FF888888887808700506060600000892
:10301000F020F82020050505060000F840784888D3
:10302000050505060000F8A8F888880505050600CE
:10303000012000F80020000000060000060A0A0631
:1030400000FEFCFCFCFCFCFCFCFCFCFC000C0B0093
:10305000FE070192032120FFFF0AFF07FF00000087
:1030600006000A0107070602008080808080008039
:10307000030202060105A0A0050707060000505044
:10308000F850F850500507070600002078A0702877
:10309000F020050707060000C0C81020409818055A
:1030A00007070600006090A040A89068020303068E
:1030B0000104C04080030707060100204080808093
:1030C00040200307070601008040202020408005A3
:1030D000050506000120A870A820050505060001C9
:1030E0002020F820200203030602FFC040800501D3
:1030F00001060003F8020202060200C0C005050531
:1031000006000108102040800507070600007088AF
:1031100098A8C8887003070706010040C0404040D7
:1031200040E0050707060000708808708080F805F9
:103130000707060000F81020100808F0050707062A
:10314000000010305090F81010050707060000F836
:1031500080F008088870050707060000708080F07E
:10316000888870050707060000F808102020202036
:1031700005070706000070888870888870050707B3
:1031800006000070888878080870020505060200AD
:10319000C0C000C0C00206060602FFC0C000C0409A
:1031A000800407070600001020408040201005031F
:1031B00003060002F800F80407070600008040201C
:1031C00010204080050707060000708808102000C6
:1031D0002005070706000070880868A8A870050782
:1031E00007060000708888F88888880507070600A9
:1031F00000F08888F08888F00507070600007088CE
:103200008080808870050707060000F0888888881D
:1032100088F0050707060000F88080F08080F80538
:103220000707060000F88080F08080800507070609
:103230000000708880B8888870050707060000883D
:103240008888F888888801070706020080808080C7
:10325000808080050707060000381010101090606D
:103260000507070600008890A0C0A0908805070702
:10327000060000808080808080F805070706000037
:1032800088D8A8888888880507070600008888C825
:10329000A8988888050707060000708888888888AD
:1032A00070050707060000F08888F0808080050719
:1032B0000706000070888888A89068050707060040
:1032C00000F08888F0A09088050707060000788045
:1032D00080700808F0050707060000F8202020206D
:1032E00020200507070600008888888888887005E0
:1032F0000707060000888888888850200507070689
:1033000000008888888888A850050707060000887C
:103310008850205088880507070600008888885054
:10332000202020050707060000F80810204080F83C
:10333000030707060000E08080808080E005050527
:103340000600018040201008030707060000E02067
:1033500020202020E00503030600042050880501FA
:1033600001060000F802020206020580400505057C
:10337000060000700878887805070706000080803E
:10338000B0C88888F0050505060000708080887048
:10339000050707060000080868988888780505056D
:1033A0000600007088F880700507070600003048A6
:1033B000E0404040400506060600FF708888780817
:1033C000700507070600008080B0C888888801075C
:1033D00007060200800080808080800308080601C4
:1033E000FF200020202020A04004070706010080C5
:1033F0008090A0C0A090030707060100C040404095
:103400004040E0050505060000D0A8A8A8A80505CD
:1034100005060000B0C8888888050505060000700C
:10342000888888700506060600FFF08888F080808E
:103430000506060600FF7888887808080505050651
:103440000000B0C88080800505050600007080700F
:1034500008F00407070600004040E0404040300507
:10346000050506000088888898680505050600009F
:1034700088888850200505050600008888A8A8507F
:103480000505050600008850205088050606060040
:10349000FF888888780870050505060000F8102068
:1034A00040F803070706010020404080404020010B
:1034B000070706020080808080808080030707065F
:1034C0000100804040204040800502020600036861
:1034D000900B0B160C00FF9FE04020002080208006
:1034E000208020802080208020802080E00B0B1610
:1034F0000C00FF8FE041000FC0C24044404FE0404D
:10350000004FE048206820CFE00B0B160C00FF7F37
:10351000C00000FFE000007FC000007FC000007F0F
:10352000C040407FC00B0B160C00FFFFE0040004FE
:10353000000400440047E04400440044004400FF0D
:10354000E00B0B160C00FF0800FFE0080010001154
:103550000021006FE0A100210021002FE00B0B16DD
:103560000C00FFFFE0080008000A000900088008BE
:103570004008000800080008000B0B160C00FFFFB5
:10358000E00A007FC04A407FC00800FFE0108031A1
:10359000000E00F1E00B0B160C00FF21002FE041A4
:1035A000004FE0C92049204FE04100450042004D56
:1035B000E00B0B160C00FF7FC0444044407FC0442A
:1035C0004044407FC044404440844084C00B0B16BC
:1035D0000C00FF0400FFE0892052409C203080DF77
:1035E000800000444044407FC00B0B160C00FFF7E6
:1035F000C04040424042407240D7E05020502057E7
:10360000A0702000E00B0B160C00FF4100F280447C
:1036100040ABA0A000FE202AA02EA0FAA02E202AB7
:10362000600B0B160C00FF04000400FFE02080205C
:103630008011000A0004000A003180C0600B0B16E4
:103640000C00FF290029004FE05100C10041005F3C
:10365000E041004100410041000B0B160C00FF202F
:103660008011007FC0110011001100FFE011001156
:1036700000210041000B0B160C00FF4100EFE04859
:103680002042006FE0C44044404E80410046C0D814
:10369000200B0B160C00FF410063C099400FE0F1B6
:1036A000405BC04900EFC059004D0073E00B0B16A2
:1036B0000C00FF42007BE0A480FFC004407FC044B8
:1036C000007FE0142024E0C4000B0B160C00FF0068
:1036D000C07F00400040007FE0400040005FC050DD
:1036E0004090409FC00B0B160C00FF2040AA40A941
:1036F000402040FA402140706068C0A34020402034
:10370000400B0B160C00FF41E07D2091201120FDA5
:103710002011205D20512051605D00F1000B0B163F
:103720000C00FF2080208041008A205140208041F1
:10373000009A60E3800000FFE00B0B160C00FF53C3
:10374000E0520052007BE0432042A072A05240525F
:103750004054A094A00B0B160C00FF04000400FFC3
:10376000E0150015001500248024805F40842004AB
:10377000000B0B160C00FF7FC040407FC040404054
:10378000407FC01100912051403180FFE00B0B16AB
:103790000C00FF7FC0000000000000FFE0040004F8
:1037A000004440444084201C000B0B160C00FFFF1B
:1037B000E0802088A0AAA0912091209120AAA0AA10
:1037C000A0802080E00B0B160C00FF440047E08433
:1037D00020EA4041804E608000EFE008202820CFA2
:1037E000E00B0B160C00FF410049004960EBA05DA7
:1037F000204920496049006820C8200FE00B0B16C3
:103800000C00FF208024802480F48024E024802485
:103810008024803480E4800FE00B0B160C00FFFF47
:10382000E00200020004000D0014802440C42004C3
:1038300000040004000B0B160C00FFF9008A00AB1B
:10384000E0AC40AA40AA40AA40AA80210052808C45
:10385000600B0B160C00FF240024003F8044008402
:10386000000400FFE00A0011002080C0600B0B166E
:103870000C00FF240024003FC044000400FFE009C6
:103880000009001120212040E00B0B160C00FF2046
:10389000003DE0512091201120FF201120292025FA
:1038A000E0452080000B0B160C00FF1800FFE080A5
:1038B0002080209F209120912091209F2080208097
:1038C000E00B0B160C00FF7FC040407FC040004063
:1038D000207FE00100FFE02100110003000B0B1628
:1038E0000C00FF04808FE0490019002FC009000977
:1038F000002FC0490089000FE00B0B160C00FF10D1
:10390000003F8051000E003180C0603F8024803F26
:103910008024803F800B0B160C00FF2280FA4007AA
:10392000E0FA808A808A80FA802280B280AAA0642D
:10393000E00B0B160C00FF222047409280EFE022A4
:103940000047C0EC4007C03440C7C004400B0B1612
:103950000C00FF08000FC008000800FFE008000E80
:103960000009800840080008000A0B160C00FFFF41
:10397000800080008080808080FF808000800080C8
:103980004080407FC00B0B160C00FF47C04100EF8A
:10399000E0410045006960C9204D6049204FE0C802
:1039A000200B0B160C00FF0800040004000A000A9C
:1039B000000A00110011002080404080200B0B16EF
:1039C0000C00FF22402200F7E0220023E03520E532
:1039D0002025402880294072200B0A140C00004446
:1039E00040444044407FC00400040084208420847C
:1039F00020FFE00B0B160C00FF040000007FC0044A
:103A000000040004007FC0040004000400FFE00B79
:103A10000B160C00FFFFE0110001C0FE00488025DE
:103A2000000400FFE015002480C4600B0B160C009E
:103A3000FF11007FC044407FC044407FC00400FFAE
:103A4000E0040004000400090B160C00FF1000FF46
:103A50008080808080FF8080808080FF8080808068
:103A600080FF800B0B160C00FF7100010003E0F9D2
:103A7000202120412051208920FA20022004C00B5F
:103A80000B160C00FF7FC01100110011001100FF88
:103A9000E0110011002100210041000B0B160C0069
:103AA000FF21002200F44057E0502057C0944054BA
:103AB00040244057C094400B0B160C00FF11000A25
:103AC000007FC004000400FFE004000A0011002091
:103AD00080C0600A0B160C00FF5FC0004084408469
:103AE00040BF4084408C409440A4408C4081C00B37
:103AF0000B160C00FF240027C024002400FFE00068
:103B0000001440248047000C0070000B0B160C00C2
:103B1000FF248004800FC0E48024803FE0248024C0
:103B200080288050008FE00B0B160C00FF08000867
:103B300000FF8088808880FF8088808880FFA08840
:103B40002007E00B0B160C00FF27802480F4802454
:103B50008074806C80A480248024A028A030600A17
:103B60000B160C00FFFFC0804080409E40924092A8
:103B7000409E4080408040FFC080400B0B160C00F0
:103B8000FF7FC044005FC050405FC050405FC042F4
:103B9000004A805240A6200B0B160C00FF040007C1
:103BA000E004007FC04040404040407FC0000052E1
:103BB0004089200B0B160C00FF47802480048004F2
:103BC00080E86020002FC024402280310026C00BF6
:103BD0000B160C00FF7FC04A407FC00400FFE004CA
:103BE000003F80208024802480FFE00B0B160C0017
:103BF000FF22004FE048204FE0C8004FE04AA05AA3
:103C0000A06FE04AA048600B0B160C00FFF3C02425
:103C1000402A80F100228065E07220A540208023A8
:103C2000002C000B0B160C00FF0400FFE0802000AE
:103C300000FFE00400240027C0240054008FE00BA4
:103C40000B160C00FF73E01080510023E0FA202ACD
:103C5000A022A022A02080214062200B0B160C0085
:103C6000FF2200F78022803680E2A025A024606831
:103C7000200000524089200B0B160C00FF73C0423D
:103C80000042007BE04A404A407A404A4042404479
:103C90004088400B0B160C00FF0800FFE008001FD7
:103CA000C030405FC090401FC01040104010C00B9B
:103CB0000B160C00FF02007FE0420042005FC04292
:103CC0000047004A805240622082000B0B160C0015
:103CD000FFF3C096409180A660A10097C091009527
:103CE00000E7E0810081000B0B160C00FF0F8088BD
:103CF000804F8008808F8040001FC0354055409520
:103D0000403FE00B0B160C00FF27E02080F88020DE
:103D10008020803880E08020802080208061800B9F
:103D20000B160C00FF1FE0910057C0144017C09401
:103D30004057C011005540992023000B0B160C0072
:103D4000FF208027E0F240218022403420E2402200
:103D5000402240224064400B0B160C00FF41004102
:103D6000004FE0E920492049206FE0C9204920495F
:103D700020CFE00B0B160C00FF2100F1004FE0A953
:103D800020F9202FE03920E92029202FE028200BDE
:103D90000B160C00FF8FE049200920CBA049204FD3
:103DA000E048204BA04AA06BA050E00B0B160C0083
:103DB000FF7FC004004440244024800400FFE0044E
:103DC000000400040004000B0B160C00FF820042EC
:103DD000001FE0C2005FC052405FC047004A8052EF
:103DE00040BFE00B0B160C00FF04007FE048807F13
:103DF000E048804F8040005FC04840478098600B9B
:103E00000B160C00FF0100EFE0A100A440AFE0A4FE
:103E100040AFE0A920E92002800C600B0B160C00DB
:103E2000FF14C0F6A0BC60A780A880BFE0A920EF67
:103E3000E009200FE009200B0B160C00FF7F8040EB
:103E4000804280628054804880488054A062A040B4
:103E50006080200B0B160C00FF04007FE040207FE9
:103E6000E040007DE054204CA0546064A08D600BC5
:103E70000B160C00FF82005FE0040008409FE0404A
:103E8000200A800A804AA092A022600B0B160C0028
:103E9000FF41004FE0E820428044406820C7C04115
:103EA0000041004100CFE00B0B160C00FF50207DBD
:103EB000209120FF2011207D205520552054205C8A
:103EC0002010E00B0B160C00FF3F8020803F80206D
:103ED00080FFE048007BC0494079404880FB600B90
:103EE0000B160C00FF04000400040024802440444E
:103EF0004044208420040004001C000B0B160C001E
:103F0000FF040004000400FFE004000A000A00119E
:103F10000011002080C060090A140A00008880494E
:103F2000000800FF80008000807F8000800080FF0C
:103F3000800B0B160C00FF21001200FFE000007840
:103F4000804A807A804A807A80488059800B0B169C
:103F50000C00FF27C000000000EFE0210022002439
:103F6000402FE0202050008FE00B0B160C00FFFFCD
:103F7000E004007FC044407FC044407FC044002430
:103F8000001800E7C00B0B160C00FF04000F807038
:103F9000800900060019E0E2200C20024001803E6A
:103FA000000B0B160C00FF80C04F0008000800CF6C
:103FB000E048804880488050804000BFE00B0B16EE
:103FC0000C00FF7FC040404C404240FFE040404C6E
:103FD0004042407FE0004003C00B0B160C00FF1175
:103FE000207D001100FFE02900FD4049407C800851
:103FF000A0FD600A200B0B160C00FF17C024402404
:104000004067C0A1002FE021002380254029202106
:10401000000B0B160C00FF0800FFE0100027C0206B
:10402000806100AFE021002100210023000B0B166E
:104030000C00FF24002FE0B400A480A4A0AAC02A92
:104040008028802940324024200B0B160C00FF7F73
:10405000E080003FC020403FC010001FC01040283B
:1040600080470038E00B0B160C00FF7FE04000405B
:104070000040004000400040004000400040008000
:10408000000B0B160C00FF23E022A0FBE0AAA0AB64
:10409000E0A940FA8021202BE03880EAA00B0B1623
:1040A0000C00FF41004FE0E44044404FE06100CF8E
:1040B000E0424044804380CC600B0B160C00FF2193
:1040C000005FE04000CFC040004FC040004FC048FC
:1040D000404FC048400B0B160C00FF04007FC0404F
:1040E000407FC040407FC040407FC004405220BF5E
:1040F000A00B0B160C00FF7FC044407FC044407FE4
:10410000C004001B00E0E01100110061000B0B1661
:104110000C00FFFFE0040008007FE049204F204929
:10412000204F20492049207FE00B0B160C00FFFD9B
:10413000E056407940388055409220FFE004002747
:10414000C02400FFE00B0B160C00FFFB8052007B2D
:10415000E01240FA4014403F8020803F8020803FA2
:10416000800B0B160C00FF1FE0200027C06440A747
:10417000C020002FE0282027C0210023000B0B16B1
:104180000C00FFF3E082208220FA20822082208A25
:1041900020B220C2E0020002000B0B160C00FF242C
:1041A0008046A095C0E48027E04480F5C006A03496
:1041B00080C48007E00B0B160C00FF27C04100876E
:1041C000E0E02022804580F2800FE03080C1400294
:1041D000200B0B160C00FF02000200220023C0225D
:1041E0000022002200220022002200FFE00B0B161A
:1041F0000C00FF04000400FFE01000100010001F7E
:10420000C010402040204043C00B0B160C00FF089C
:10421000000800FFE01000100020003FC06040A038
:104220004020403FC00B0B160C00FF7FC004000471
:10423000000400FFE00A000A001200222042208150
:10424000E00B0B160C00FF08000800FFE010001048
:104250000020003FC04400840004007FE00B0B16E8
:104260000C00FF1100FFE0110000007FC0084008B3
:104270004008400BC0080008000B0B160C00FF7B29
:10428000E0948004007FC00400FFE00100FFE02113
:1042900000110007000B0B160C00FF210047C09116
:1042A000002FE06080AFE0208024802280208023E7
:1042B000800B0B160C00FF27C02440F7C02EE02A0D
:1042C000A03EE0E1002FE02380254069200B0B1683
:1042D0000C00FF140027E02A006200A3C022002285
:1042E0000023E022002200220000060900FE000058
:1042F00000000001090008FE000005080806000093
:1043000040F0C88888987810050808060000C0F8B2
:104310008888888888F80505050600012030F8306F
:10432000200508080600002070F820202020E00565
:1043300009090600FF2070A8A8B888887020050920
:10434000090600FFE080C0B0A82830282805090928
:104350000600FFF8A88888888888A8F8050A0A0651
:1043600000FE205050505088A8A888700303030610
:10437000000340A0404D6F766520302E316D6D00FA
:10438000000000000000000000C1B220302E316D9E
:104390006D00000000000000000000000044657097
:1043A0006C2E20302E316D6D0000000000000000EA
:1043B00000302E316D6D0000000000000000000094
:1043C00000000000004D6F76657220302E316D6D5B
:1043D0000000000000000000004D756F7669206449
:1043E0006920302E316D6D000000000000302E314C
:1043F0006D6D20B2C4DEB3000000000000000000BC
:10440000004D6F766520316D6D00000000000000EA
:104410000000000000C1B220316D6D0000000000FE
:104420000000000000000000004465706C2E203188
:104430006D6D0000000000000000000000316D6D97
:10444000000000000000000000000000000000006C
:10445000004D6F76657220316D6D00000000000028
:1044600000000000004D756F766920646920316D91
:104470006D00000000000000002020316D6D20B2B2
:10448000C4DEB3000000000000000000004D6F76A5
:10449000652031306D6D000000000000000000005C
:1044A00000C1B22031306D6D00000000000000003E
:1044B00000000000004465706C2E2031306D6D00EE
:1044C00000000000000000000031306D6D000000B1
:1044D000000000000000000000000000004D6F76AA
:1044E00065722031306D6D0000000000000000009A
:1044F000004D756F76692064692031306D6D000064
:1045000000000000002031306D6D20B2C4DEB30029
:104510000000000000000000004D6F76652061780B
:1045200069730000000000000000000000C1B2CE6E
:10453000000000000000000000000000000000007B
:10454000004465706C6163657220756E20617865EA
:1045500000000000004265776567656E000000009E
:104560000000000000000000004D6F7665722065BD
:104570006A6573000000000000000000004D756FC8
:1045800076692041737365000000000000000000A0
:1045900000BCDEB8B2C4DEB30000000000000000C2
:1045A00000000000004578747275646572000000B8
:1045B000000000000000000000CCADBA00000000C8
:1045C00000000000000000000000000000457874BA
:1045D0007275646575720000000000000000000044
:1045E0000045787472756465720000000000000078
:1045F00000000000004578747275736F720000004F
:104600000000000000000000004573747275736FB5
:1046100072650000000000000000000000B4B8BD9A
:10462000C4D9B0C0DEB000000000000000000000EF
:10463000004D6F7665205A00000000000000000069
:104640000000000000C1B2205A000000000000007D
:104650000000000000000000004465706C2E205A2D
:10466000000000000000000000000000005665721D
:1046700073636869656265205A00000000000000ED
:10468000004D6F766572205A0000000000000000A7
:1046900000000000004D756F7669205A0000000090
:1046A0000000000000000000005ABCDEB820B2C4C8
:1046B000DEB300000000000000000000004D6F7637
:1046C000652059000000000000000000000000000C
:1046D00000C1B220590000000000000000000000EE
:1046E00000000000004465706C2E2059000000009E
:1046F00000000000000000000056657273636869E6
:10470000656265205900000000000000004D6F76D2
:104710006572205900000000000000000000000049
:10472000004D756F76692059000000000000000000
:10473000000000000059BCDEB820B2C4DEB30000A7
:104740000000000000000000004D6F76652058005A
:1047500000000000000000000000000000C1B220C6
:1047600058000000000000000000000000000000F1
:10477000004465706C2E205800000000000000000E
:104780000000000000566572736368696562652009
:104790005800000000000000004D6F766572205840
:1047A000000000000000000000000000004D756FD8
:1047B00076692058000000000000000000000000A2
:1047C0000058BCDEB820B2C4DEB300000000000018
:1047D00000000000004C616E6775616765000000B5
:1047E0000000000000000000008081BEBF202020EB
:1047F000202020200000000000000000004C61206C
:104800006C616E677565000000000000000000002C
:1048100000537072616368650000000000000000D2
:1048200000000000004964696F6D61000000000035
:104830000000000000000000004C696E67756167B1
:1048400067696F000000000000000000004C616E0E
:10485000677561676500000000000000000000004F
:1048600000526573746F72652064656661756C745F
:104870000000000000E7E8ADE9BEBF000000000056
:104880000000000000000000005265737461757242
:10489000657220646566617574730000005374610D
:1048A0006E646172647765727465206C6164656EB4
:1048B00000526573746175726172206D656D6F72FF
:1048C000696100000052697072697374696E6120D9
:1048D000696D702E0000000000BEAFC3B2D8BEAF3D
:1048E000C40000000000000000000000005A204F3B
:1048F00066667365742053657474696E67000000A2
:1049000000BEBF5ACEC0C100000000000000000081
:104910000000000000446563616C616765205A0017
:104920000000000000000000005A2056657273610C
:10493000747A00000000000000000000004465736D
:1049400066617365205A000000000000000000004E
:10495000005A204F66667365740000000000000076
:1049600000000000005AB5CCBEAFC400000000003B
:1049700000000000000000000054656D7065726169
:1049800074757265000000000000000000C9D2BE0E
:10499000BF00000000000000000000000000000058
:1049A0000054656D70657261747572650000000079
:1049B000000000000054656D7065726174757200CE
:1049C00000000000000000000054656D7065726119
:1049D0007475726100000000000000000054656DF5
:1049E0007065726174757261000000000000000063
:1049F00000B5DDC4DE000000000000000000000083
:104A0000000000000042656400000000000000009B
:104A100000C4C7000000000000000000004C6974E2
:104A200000000000000000000042657474000000F7
:104A30000000000000506C617461666F726D61006F
:104A40000050696174746F000000000000CDDEAF9B
:104A5000C4DE000000000000004E6F7A7A6C650032
:104A6000000000D3D4000000000000000042757375
:104A70006500000000000044757365000000000040
:104A800000426F7175696C6C6100005567656C6CF4
:104A90006F00000000C9BDDED90000000000004327
:104AA000616E6E6F7420656E7465722073756264DA
:104AB00069723A2000022E2E005052494E54205066
:104AC00041555345440000000000000000CAF3F1C6
:104AD000F220202020200000000000000000000044
:104AE00000494D50522E20504155534500000000C2
:104AF0000000000000445255434B2050415553499B
:104B0000455254000000000000494D50522E2050E4
:104B100041555341444100000000000000535441FE
:104B20004D504120494E2050415553410000000056
:104B3000005052494E542050415553454400000006
:104B400000000000004175746F205265747261634B
:104B5000742046696C616D656E740093E4929420D4
:104B600020202020000000000000000000000000C5
:104B700000446563686172676572206C65206669D0
:104B80006C616D656E740046696C616D656E742054
:104B9000656E746C6164656E000000000073616C8A
:104BA0006964612064652066696C616D656E746F0F
:104BB000000000536361726963612046696C616D36
:104BC000656E74000000000000CCB2D7D2DDC420B6
:104BD000B1B3C4000000000000000000000000416C
:104BE00075746F20466565642046696C616D656EFD
:104BF0007400000000E4AB929420202020200000EC
:104C000000000000000000000000004368617267BF
:104C1000652066696C616D656E74000000000000BF
:104C20000046696C616D656E74206C6164656E0030
:104C300000000000000000656E7472616461206411
:104C4000652066696C616D656E746F00004361720A
:104C50006963612066696C616D656E746F00000048
:104C6000000000CCB2D7D2DDC420B2DD00000000CD
:104C70000000000000000000005075726765206DA4
:104C80006F726500000000000000000000E4ABE06F
:104C9000E19294000000000000000000000000000D
:104CA0000050757267657220656E636F72650000F3
:104CB00000000000004D65687220656E746C6565CB
:104CC00072656E0000000000006361726761206D14
:104CD000617300000000000000000000004C6962E9
:104CE0006572612064692070697500000000000031
:104CF000005075726765206D6F72650000000000DE
:104D00000000000000436F6E74696E75650000005E
:104D1000000000000000000000F4F50000000000AA
:104D2000000000000000000000000000005265705C
:104D300072656E64726520696D70722E00000000ED
:104D400000447275636B6520776569746572000055
:104D50000000000000526573756D697220696D7006
:104D60002E000000000000000052697072656E6441
:104D700069207374616D70610000000000CCDFD8A1
:104D8000DDC4BBB2B6B200000000000000000000AD
:104D900000524553554D45204F5054494F4E533ABC
:104DA0000000000000F4F5FEFF202020202000007D
:104DB0000000000000000000004F5054494F4E53C7
:104DC00020524550524953453A00000000464F5288
:104DD00054532E204F5054494F4E454E3A00000038
:104DE000004F50432E205245494E4943494F3A0007
:104DF00000000000004F505A494F4E493A00000051
:104E0000000000000000000000524553554D4520B1
:104E10004F5054494F4E533A00000000004D363079
:104E2000303A20546F6F20636F6C6400486F746574
:104E30006E6420746F6F20636F6C640A0043616E50
:104E40006E6F74206F70656E207375626469722076
:104E50000050726F7465637465642050696E0A0057
:104E60005374616E6461726420446576696174692B
:104E70006F6E3A20002052616E67653A2000204D27
:104E800061783A2000204D696E3A20004D65616ED0
:104E90003A200046696E6973686564210A002072D1
:104EA000616E67653A2000206D61783A2000206DC0
:104EB000696E3A2000207369676D613A2000206DA9
:104EC00065616E3A20003A207A3A2000206F662011
:104ED00000205A00205900205800476F696E672053
:104EE000746F3A00436C6F636B776973650A0043B4
:104EF0006F756E7465722D00204469726563746904
:104F00006F6E3A2000202020616E676C653A2000A9
:104F10005374617274696E67207261646975733A63
:104F20002000506F736974696F6E696E67207468D2
:104F3000652070726F62652E2E2E0A003F4E756DD1
:104F4000626572206F66206C65677320696E206DE4
:104F50006F76656D656E74206E6F7420706C617510
:104F60007369626C652028302D3135292E0A003F87
:104F70002028582C5929206F7574206F6620626F85
:104F8000756E64732E0A003F53616D706C652073FB
:104F9000697A65206E6F7420706C61757369626CDC
:104FA000652028342D3530292E0A004D3438205AFA
:104FB0002D50726F6265205265706561746162691F
:104FC0006C69747920546573740A003F285629650A
:104FD00072626F7365206C6576656C2069732069F9
:104FE0006D706C61757369626C652028302D342991
:104FF0002E0A00205A00205900580020204D6178C8
:105000003A2000205A00205900580020204D696E97
:105010003A20004F6E20004F666600536F66742082
:10502000656E6473746F70733A200020643A0020D8
:10503000693A0020703A00496E76616C69642065B7
:10504000787472756465720A0023646566696E65BA
:105050002044454641554C545F4B64200023646511
:1050600066696E652044454641554C545F4B692046
:105070000023646566696E652044454641554C547D
:105080005F4B702000504944204175746F74756EF9
:10509000652066696E6973686564212050757420A7
:1050A000746865206C617374204B702C204B6920F0
:1050B000616E64204B6420636F6E7374616E7473F1
:1050C0002066726F6D2062656C6F7720696E746FF9
:1050D00020436F6E66696775726174696F6E2E68C2
:1050E0000A00504944204175746F74756E652066DE
:1050F00061696C6564212074696D656F75740A005F
:10510000453120544845524D414C2052554E41574F
:10511000415900546865726D616C2052756E6177FB
:1051200061790045312048656174696E6720666168
:10513000696C65640048656174696E6720666169C1
:105140006C656400504944204175746F74756E65D8
:10515000206661696C6564212054656D70657261BB
:105160007475726520746F6F20686967680A002023
:105170004B643A2000204B693A2000204B703A20C3
:10518000000A20436C617373696320504944200A0C
:10519000002054753A2000204B753A2000206D61A4
:1051A000783A2000206D696E3A200020643A200091
:1051B00020626961733A2000504944204175746F40
:1051C00074756E65206661696C6564212042616456
:1051D000206578747275646572206E756D62657293
:1051E0000A00504944204175746F74756E652073D0
:1051F000746172740A00426564204C6576656C695E
:105200006E6720004661696C656420746F20656E6E
:1052100061626C6520426564204C6576656C696EE0
:10522000670A00426564204C6576656C20436F72A6
:1052300072656374696F6E204D61747269783A00AB
:105240004F666673657473206170706C6965640085
:105250004572723A20546F6F206661722100546F5C
:105260006F206661722066726F6D2072656665726E
:10527000656E636520706F696E740A00496E7365B0
:1052800072742066696C616D656E7420616E642055
:10529000707265737320627574746F6E0A00507259
:1052A00065737320627574746F6E20746F20686507
:1052B0006174206E6F7A7A6C650A00496E7365724C
:1052C000742066696C616D656E7420616E64207017
:1052D0007265737320627574746F6E20286F72200C
:1052E0004D313038290A00446F776E6C6F61646904
:1052F0006E673A0000000000000000000082838416
:10530000E4202020202020000000000000000000F9
:1053100000000054656C656368617267656D656E59
:10532000743A00000000000000576972642068654C
:1053300072756E74657267656C6164656E3A00447F
:10534000657363617267616E646F3A00000000000C
:105350000000000000446F776E6C6F61643A0000DB
:105360000000000000000000000000446F776E6C39
:105370006F6164696E673A00000000000000000081
:10538000002000446F776E6C6F6164204661696C29
:105390000000000000000084E49F9E2020202020C8
:1053A00020200000000000000000004563686F75C9
:1053B00065720000000000000000000000000053C3
:1053C000636865697465726E00000000000000008B
:1053D0000000004572726F7220646520646573631B
:1053E0006172676100000053636172696361204606
:1053F00061696C0000000000000000446F776E6C73
:105400006F6164204661696C0000000000000020AC
:10541000004974616C69616E0000000000000000CA
:1054200000000000004974616C69616E00000000BA
:105430000000000000000000004974616C69656EA6
:105440006E6500000000000000000000004974616B
:105450006C69656E697363680000000000000000FD
:10546000004974616C69616E6F000000000000000B
:1054700000000000004974616C69616E6100000009
:105480000000000000000000004974616C69616E5A
:1054900000000000000000000000000000537061E8
:1054A0006E6973680000000000000000000000004A
:1054B000005370616E697368000000000000000016
:1054C0000000000000457370616E6F6C000000000A
:1054D0000000000000000000005370616E697363FB
:1054E000680000000000000000000000004573702C
:1054F000616E6F6C610000000000000000000000A1
:1055000000537061676E6F6C610000000000000066
:1055100000000000005370616E69736800000000B5
:105520000000000000000000004765726D616E0021
:10553000000000000000000000000000004765724D
:105540006D616E000000000000000000000000001F
:1055500000416C6C656D616E6465000000000000C8
:105560000000000000446575747363686500000006
:10557000000000000000000000416C656D616E00DD
:1055800000000000000000000000000000546564FE
:10559000657363610000000000000000000000006F
:1055A000004765726D616E000000000000000000A1
:1055B00000000000004672656E6368000000000095
:1055C0000000000000000000004672656E63680085
:1055D00000000000000000000000000000467261B2
:1055E0006E63616973650000000000000000000048
:1055F000004672616E7A6F73697363680000000021
:1056000000000000004672616E63657300000000D8
:105610000000000000000000004672616E636573C8
:1056200065000000000000000000000000467265F8
:105630006E63680000000000000000000000000031
:10564000004A6170616E6573650000000000000033
:1056500000000000004A6170616E65736500000023
:105660000000000000000000004A61706F6E616978
:10567000730000000000000000000000004A61709C
:10568000616E6973636800000000000000000000A4
:10569000004A61706F6E65736100000000000000D9
:1056A000000000000047696170706F6E65736500EF
:1056B0000000000000000000004A6170616E657328
:1056C0006500000000000000000000000043686961
:1056D0006E6573650000000000000000000000001F
:1056E000004368696E6573650000000000000000FB
:1056F00000000000004368696E6F69736500000078
:105700000000000000000000004368696E657369D6
:105710007363680000000000000000000043686937
:105720006E6F00000000000000000000000000009C
:105730000043696E65736500000000000000000012
:1057400000000000004368696E657365000000009A
:10575000000000000000000000456E676C6973687F
:1057600000000000000000000000000000456E671F
:105770006C69736800000000000000000000000079
:1057800000416E676C6169736500000000000000F5
:105790000000000000456E676C69736368000000DC
:1057A000000000000000000000496E676C65730097
:1057B00000000000000000000000000000496E67CB
:1057C0006C65736500000000000000000000000030
:1057D00000456E676C6973680000000000000000FF
:1057E0000000000000436F6E74726F6C00000000D8
:1057F000000000000000000000D8D9EEEF0000001B
:1058000000000000000000000000000000436F6E78
:1058100074726F6C657200000000000000000000F0
:105820000045696E7374656C6C756E67656E00001B
:105830000000000000436F6E74726F6C0000000087
:10584000000000000000000000436F6E74726F6C77
:105850006C6F0000000000000000000000BADDC412
:10586000DBB0D900000000000000000000000000D4
:105870000041646A757374205A204F6666736574BC
:10588000286D6D29005ACEC0C1286D6D2900000019
:10589000000000000000000000446563616C616767
:1058A00065205A20286D6D2900000000005A2D56F1
:1058B00065727361747A20286D6D29000000000004
:1058C00000416A75737465205A204F66667365746B
:1058D000286D6D29004F6666736574205A20286D07
:1058E0006D290000000000000041646A7573742097
:1058F0005A204F6666736574286D6D290047312004
:105900005A30204631303000473120583130302075
:105910005937352046323030300047393000473271
:105920003900473238205820592046323030300074
:10593000473238205A004731205A31353020463519
:10594000303000473238205A2046353030004F6E14
:10595000004F666600646F6F72004F6E004F6666A0
:105960000066696C616D656E74004F6666004F6E0F
:10597000007A5F6D6178004F6666004F6E00795F58
:105980006D6178004F6666004F6E00785F6D6178DC
:105990000046696C616D656E742053656E736F723D
:1059A000000000000000009294B3B52020202000E9
:1059B00000000000000000000000000000436170D3
:1059C000746575722064652066696C616D656E74BE
:1059D00000000046696C616D656E7473656E736F6F
:1059E00072000000000000000053656E736F7220AB
:1059F00064652066696C616D656E746F00000053AC
:105A0000656E736F726520612066696C616D656E8D
:105A1000746F00000046696C616D656E742053659B
:105A20006E736F72000000000000004F6666000099
:105A300000000000000000000000000000B5B600FB
:105A40000000000000000000000000000000004511
:105A50007465696E6472650000000000000000005B
:105A6000004162736368616C74656E000000000041
:105A700000000041706167617200000000000000DA
:105A80000000000000537065676E690000000000B0
:105A9000000000000000004F6E0000000000000049
:105AA0000000000000000000004F6E000000000039
:105AB0000000000000000000000000CAB300000069
:105AC00000000000000000000000000000416C6CBD
:105AD000756D6572000000000000000000000041CC
