:100000000C94F1190C94221A0C94221A0C94221AB2
:100010000C94221A0C94221A0C94221A0C94221A70
:100020000C94221A0C94221A0C94221A0C94221A60
:100030000C94221A0C94221A0C94221A0C94221A50
:100040000C94221A0C947F530C94221A0C94221AAA
:100050000C94221A0C94221A0C94C1A70C9479AE19
:100060000C94221A0C94D46E0C94221A0C94221A1A
:100070000C94221A0C94221A0C94221A0C94221A10
:100080000C94221A0C94221A0C94221A0C94221A00
:100090000C94221A0C94221A0C94221A0C945E3B93
:1000A0000C94221A0C94221A0C94221A0C94221AE0
:1000B0000C94221A0C94221A0C94221A0C94221AD0
:1000C0000C94221A0C94221A0C94221A0C94221AC0
:1000D0000C94221A0C94221A0C94221A0C94221AB0
:1000E0000C94221A88B288B293B293B293B29EB2A1
:1000F0009EB29EB2B3B2A9B2A9B2A9B2C9B5F3B5C4
:10010000FAB501B628B636B65DB66BB692B6A0B6ED
:10011000C7B6D5B6F9B6543A863A883A953A9A3A75
:10012000523AA33A43A853A872A882A89DA8A2A8AD
:10013000A5A8AAA8ADA8B2A8B5A8BAA8C4A8E8ABB3
:10014000EBABDAABDEABE4AB22ACEFABF3ABF9ABD2
:10015000FDAB01AC07AC0BAC0FAC22AC15AC19ACD1
:100160001DAC58C85DC862C86CC876C8EFC880C8E6
:1001700088C890C89AC8A4C8AEC8BDC8C7C8EFC8C8
:10018000D1C8DBC8E5C8084AD73B3BCE016E84BC6A
:10019000BFFDC12F3D6C74319ABD56833DDA3D00E1
:1001A000C77F11BED9E4BB4C3E916BAAAABE00002A
:1001B00000803F05A84CCDB2D44EB93836A9020C08
:1001C00050B9918688083CA6AAAA2ABE00000080E1
:1001D0003F004E414E494E495459494E46CDCCCC34
:1001E0003D0AD7233C17B7D13877CC2B329595E60B
:1001F000241FB14F0A000020410000C84200401CEB
:100200004620BCBE4CCA1B0E5AAEC59D7400407A37
:1002100010F35A00A0724E18090010A5D4E800008F
:10022000E87648170000E40B54020000CA9A3B002D
:100230000000E1F505000080969800000040420FA4
:10024000000000A08601000000102700000000E868
:1002500003000000006400000000000A000000002D
:10026000000100000000002C76D888DC674F0823CE
:10027000DFC1DFAE59E1B1B796E5E3E453C63AE634
:1002800051997696E8E6C28426EB898C9B62ED4014
:100290007C6FFCEFBC9C9F40F2BAA56FA5F4900563
:1002A0005A2AF75C936B6CF9676DC11BFCE0E40D97
:1002B00047FEF520E6B500D0ED902E03009435778B
:1002C000050080841E080000204E0A000000C80CB3
:1002D000333333330F986E12831141EF8D2114891C
:1002E0003BE65516CFFEE6DB18D1844B381BF77C76
:1002F0001D901DA4BBE424203284725E228100C9BB
:10030000F124ECA1E53D274C4556454C494E4700AC
:10031000434F4D4D554E49434154494F4E00445271
:100320005952554E004552524F525300494E464F76
:10033000004543484F00536C6565702E2E2E003CDF
:100340003C3C2067636F64655F47323800454E442C
:1003500053544F50535F4F4E4C595F464F525F4876
:100360004F4D494E4720656E61626C655F656E64F6
:1003700073746F70732866616C736529003E206822
:100380006F6D6559003E20686F6D6558003E2048CE
:100390004F4D4541584953285A290067636F64659A
:1003A0005F473238203E3E3E00205A3A2000205916
:1003B0003A200042656420583A20004631353053D7
:1003C0002072656164792E00526573756D696E6780
:1003D000207072696E74005761697420666F7220B4
:1003E000757365722E2E2E0054455354004E6F20A7
:1003F0006D6F76652E00456E642066696C65206CB5
:1004000069737400426567696E2066696C65206C6B
:10041000697374004368616E67652066696C616D1D
:10042000656E7400473120583138302059313430EE
:100430002031303030005344207072696E74696E20
:1004400067206279746520004E6F742053442070D9
:1004500072696E74696E67002569206D696E2C2063
:100460002569207365630048656174696E672E2E87
:100470002E0046313530532072656164792E00318B
:10048000032C0325031E03100307036F6666004455
:10049000454255473A004B494C4C45442E20004DAF
:1004A0003131332053006F6B004631353053204FCC
:1004B00066662E004649524D574152455F4E414DAA
:1004C000453A4D61726C696E20312E3620285745B1
:1004D00045444F2920534F555243455F434F4445B0
:1004E0005F55524C3A687474703A2F2F7777772E95
:1004F000776565646F2E6C74642050524F544F437F
:100500004F4C5F56455253494F4E3A312E30204D95
:10051000414348494E455F545950453A463135307C
:10052000532045585452554445525F434F554E54FD
:100530003A3120555549443A636564653261326603
:100540002D343161322D343734382D396231322D2A
:100550006335356336326633363766660A004D31A9
:10056000343520533C696E6465783E206F75742085
:100570006F662072616E67652028302D3129005327
:10058000657474696E672054726176656C2041638E
:1005900063656C65726174696F6E3A2000536574AF
:1005A00074696E672052657472616374204163637D
:1005B000656C65726174696F6E3A2000536574747E
:1005C000696E67205072696E7420416363656C6563
:1005D000726174696F6E3A200053657474696E6756
:1005E000205072696E7420616E6420547261766569
:1005F0006C20416363656C65726174696F6E3A204B
:10060000004F666673657473206170706C69656411
:10061000004572723A20546F6F2066617221005457
:100620006F6F206661722066726F6D2072656665FD
:1006300072656E636520706F696E740000004843D8
:1006400000001643000025433A20007A5F6D617870
:100650003A20007A5F6D696E3A20005A204F666634
:10066000736574005072696E742053617665642EF0
:100670005368757420446F776E21002053415645AE
:10068000464C41473A20002043453A0020435A3A1D
:10069000002043593A0043583A00220A00556E6B35
:1006A0006E6F776E20636F6D6D616E643A2022000D
:1006B00048617264636F6465642044656661756C4B
:1006C000742053657474696E6773204C6F61646540
:1006D000640020204D383531205A005A2D50726F59
:1006E0006265204F666673657420286D6D293A0037
:1006F00020204D3230302044300020204D32303028
:100700002044002044697361626C65640046696C32
:10071000616D656E742073657474696E67733A00F9
:1007200020440020490020204D3330342050002048
:100730004C0020430020440020490020204D33304D
:10074000312050005049442073657474696E67739A
:100750003A0020460020420020204D3134352053FD
:100760003120480020460020420020204D31343501
:100770002053302048004D6174657269616C2068B7
:10078000656174757020706172616D6574657273F6
:100790003A00205A0020590020204D32303620588F
:1007A00000486F6D65206F666673657420286D6DF7
:1007B000293A00204500205A0020580020420020FD
:1007C000540020204D323035205300416476616E54
:1007D000636564207661726961626C65733A205367
:1007E0003D4D696E20666565647261746520286D93
:1007F0006D2F73292C20543D4D696E2074726176E3
:10080000656C20666565647261746520286D6D2F66
:1008100073292C20423D6D696E696D756D2073657D
:10082000676D656E742074696D6520286D73292C61
:1008300020583D6D6178696D756D205859206A6545
:10084000726B20286D6D2F73292C20205A3D6D610D
:1008500078696D756D205A206A65726B20286D6D00
:100860002F73292C2020453D6D6178696D756D20B1
:1008700045206A65726B20286D6D2F732900205406
:100880000020520020204D3230342050004163635C
:10089000656C65726174696F6E733A20503D707259
:1008A000696E74696E672C20523D72657472616363
:1008B0007420616E6420543D74726176656C002012
:1008C0004500205A0020590020204D323031205858
:1008D000004D6178696D756D20416363656C65726B
:1008E0006174696F6E20286D6D2F7332293A002074
:1008F0004500205A0020590020204D323033205826
:10090000004D6178696D756D20666565647261740E
:10091000657320286D6D2F73293A00204500205AF9
:100920000020590020204D39322058005374657042
:10093000732070657220756E69743A0029002C204E
:10094000002C20003A2028004B494C4C45442E20D6
:100950000053544F505045442E20005072696E741D
:1009600065722073746F707065642064756520749F
:100970006F206572726F72732E20466978207468DA
:1009800065206572726F7220616E642075736520D8
:100990004D39393920746F20726573746172742E09
:1009A000202854656D706572617475726520697375
:1009B0002072657365742E205365742069742061FC
:1009C000667465722072657374617274696E6729EA
:1009D000004E6F204C696E65204E756D6265722009
:1009E0007769746820636865636B73756D2C204C40
:1009F000617374204C696E653A20004E6F20436825
:100A000065636B73756D2077697468206C696E65BA
:100A1000206E756D6265722C204C617374204C6978
:100A20006E653A2000636865636B73756D206D6950
:100A3000736D617463682C204C617374204C696E13
:100A4000653A20004C696E65204E756D62657220B6
:100A50006973206E6F74204C617374204C696E65ED
:100A6000204E756D6265722B312C204C61737420A1
:100A70004C696E653A20004D313130004D383420DC
:100A8000582059205A204500256920686F757273D7
:100A9000202569206D696E7574657300446F6E65FD
:100AA000207072696E74696E672066696C650000FB
:100AB000000A0B02090C0D0E0807030401000000D8
:100AC0000000000000000000000000000000000026
:100AD00000000000000000000000001211100000E3
:100AE0000000000000000000000000000000000006
:100AF00000000000002020506C616E6E657242752F
:100B00006666657242797465733A200020467265A4
:100B100065204D656D6F72793A20004D617220320B
:100B200031203230313900436F6D70696C65643A41
:100B3000200028506572726F6E2C20576969626FB1
:100B40006F78746563682900207C20417574686F34
:100B5000723A2000323031392D30332D303120308F
:100B6000393A303000204C617374205570646174E0
:100B700065643A200020312E36004D61726C696E3A
:100B80000020536F667477617265205265736574D7
:100B900000205761746368646F67205265736574E1
:100BA000002042726F776E206F75742052657365F6
:100BB00074002045787465726E616C2052657365AF
:100BC0007400506F776572557000737461727400B1
:100BD0006572726F722077726974696E6720746FC4
:100BE0002066696C6500456E6473746F70732025B0
:100BF000632025632025632025630020503A0020D0
:100C00005A3A0020593A0020583A00656E647374CD
:100C10006F7073206869743A200046313530532074
:100C200072656164792E00506C617465206C657624
:100C3000656C20636F6D706C657465004D313800B4
:100C40004731205831363020593136302046333044
:100C50003030004731205A313530204635303000B1
:100C6000536F6C656E6F69642070726F6265206887
:100C70006569676874007761697420666F72206EB9
:100C80006F7A7A6C65206D6F7665004731205A3037
:100C9000204635303000473120583130302059312E
:100CA0003130204633303030004731205A31300067
:100CB0005370696E2072696768742066726F6E7413
:100CC000206E7574007761697420666F72206E6F94
:100CD0007A7A6C65206D6F7665004731205A302036
:100CE00046353030004731205831373520593130C2
:100CF000204633303030004731205A3130005370B5
:100D0000696E206C6566742066726F6E74206E75F5
:100D100074007761697420666F72206E6F7A7A6CE6
:100D200065206D6F7665004731205A30204635309A
:100D30003000473120583235205931302046333089
:100D40003030004731205A3130005370696E206CCA
:100D5000656674206261636B206E757400776169EB
:100D60007420666F72206E6F7A7A6C65206D6F7674
:100D700065004731205A3020463530300047312059
:100D8000583235205931343820463330303000471E
:100D900031205A3130005370696E2072696768746F
:100DA000206261636B206E757400776169742066E0
:100DB0006F72206E6F7A7A6C65206D6F7665004772
:100DC00031205A30204635303000473120583137F5
:100DD00035205931343820463330303000506C6182
:100DE0007465206C6576656C2073746172742E2E48
:100DF0002E004731205A35204635303000473238F2
:100E0000205A004731205A313530204635303000E5
:100E10004732380046313530532072656164792E8F
:100E2000004D313800526574726163740046696C1C
:100E3000616D656E7420496E0050726568656174FD
:100E400020504C4100473120583138302046333053
:100E50003030004732380047323800446F6E65202A
:100E6000736176696E672066696C652E004D323954
:100E70000000060900FE000000000001090008FE55
:100E8000000005080806000040F0C888889878101F
:100E9000050808060000C0F88888888888F80505D5
:100EA000050600012030F830200508080600002063
:100EB00070F820202020E00509090600FF2070A816
:100EC000A8B8888870200509090600FFE080C0B036
:100ED000A8283028280509090600FFF8A88888886E
:100EE0008888A8F8050A0A0600FE2050505050884D
:100EF000A8A8887003030306000340A04043617262
:100F0000642072656D6F7665640043617264206968
:100F10006E7365727465640000060900FE07019235
:100F2000032120FFFF08FF07FF000000060000016B
:100F3000070706020080808080800080030202068E
:100F40000105A0A00507070600005050F850F85012
:100F5000500507070600002078A07028F02005073C
:100F600007060000C0C810204098180507070600B3
:100F7000006090A040A89068020303060104C040EE
:100F8000800307070601002040808080402003077F
:100F9000070601008040202020408005050506004E
:100FA0000120A870A8200505050600012020F820D2
:100FB000200203030602FFC0408005010106000372
:100FC000F8020202060200C0C0050505060001087D
:100FD00010204080050707060000708888888888F0
:100FE0007003070706010040C040404040E005078D
:100FF00007060000708808708080F8050707060063
:1010000000F81020100808F005070706000010304F
:101010005090F81010050707060000F880F0080847
:101020008870050707060000708080F088887005CA
:101030000707060000F808102020202005070706F3
:1010400000007088887088887005070706000070A7
:10105000888878080870020505060200C0C000C034
:10106000C00206060602FFC0C000C0408004070799
:1010700006000010204080402010050303060002F7
:10108000F800F80407070601008040201020408087
:1010900005070706000070880810200020050707D4
:1010A00006000070880868A8A870050707060000F9
:1010B000708888F8888888050707060000F0888807
:1010C000F08888F005070706000070888080808817
:1010D00070050707060000F08888888888F00507F3
:1010E00007060000F88080F08080F80507070600FA
:1010F00000F88080F0808080050707060000708877
:1011000080B8888870050707060000888888F888F6
:101110008888010707060200808080808080800523
:10112000070706000038101010109060050707062A
:1011300000008890A0C0A0908805070706000080E6
:101140008080808080F805070706000088D8A8887E
:101150008888880507070600008888C8A8988888B6
:1011600005070706000070888888888870050707CB
:10117000060000F08888F0808080050707060000E0
:1011800070888888A89068050707060000F088889E
:10119000F0A0908805070706000078808070080896
:1011A000F0050707060000F8202020202020050772
:1011B0000706000088888888888870050707060069
:1011C00000888888888850200507070600008888DE
:1011D000888888A850050707060000888850205096
:1011E0008888050707060000888888502020200589
:1011F0000707060000F80810204080F803070706DC
:101200000100E08080808080E00505050600018007
:1012100040201008030707060100E02020202020BE
:10122000E0050303060004205088050101060000C4
:10123000F80202020602058040050505060000705E
:10124000087888780507070600008080B0C888887D
:10125000F005050506000070808088700507070608
:101260000000080868988888780505050600007061
:1012700088F880700507070600003048E0404040CD
:10128000400506060600FF70888878087005070785
:101290000600008080B0C888888801070706020021
:1012A000800080808080800308080601FF200020E5
:1012B000202020A040040707060000808090A0C0E6
:1012C000A090030707060100C04040404040E005F1
:1012D0000505060000D0A8A8A8A805050506000079
:1012E000B0C8888888050505060000708888887061
:1012F0000506060600FFF08888F0808005060606D1
:1013000000FF788888780808050505060000B0C841
:1013100080808005050506000070807008F00407D5
:10132000070600004040E04040403005050506004B
:101330000088888898680505050600008888885018
:10134000200505050600008888A8A85005050506A3
:10135000000088502050880506060600FF8888880F
:10136000780870050505060000F8102040F803070E
:101370000706010020404080404020010707060288
:101380000080808080808080030707060100804005
:1013900040204040800502020600026890000000E4
:1013A000060000000000060000000000060000002B
:1013B000000006000000000006000000000006001B
:1013C0000000000006000000000006000000000011
:1013D00006000000000006000000000006000000FB
:1013E00000000600000000000600000000000600EB
:1013F00000000000060000000000060000000000E1
:1014000006000000000006000000000006000000CA
:1014100000000600000000000600000000000600BA
:1014200000000000060000000000060000000000B0
:10143000060000000000060000000000060000009A
:10144000000006000000000006000000000006008A
:101450000000000006000000000006000000000080
:1014600006000000000006000001070706020080D9
:101470000080808080800507070600002070A8A0FB
:10148000A87020050707060000304040E04050A843
:1014900005050506000088705070880507070600DE
:1014A00000885020F820F8200107070602008080FD
:1014B00080008080800508080600003048205050D9
:1014C000209060030101060107A005070706000040
:1014D000F888B8B8B888F8050707060001700878DA
:1014E000887800F80505050600012850A050280559
:1014F0000303060001F80808020202060206408003
:10150000050707060000F888A88898A8F8050101D3
:10151000060006F8040404060003609090600507C6
:10152000070600002020F8202000F804050506002A
:101530000360902040F0030505060003E020E02052
:10154000E002020206020640800508080600FF8845
:1015500088888898E88080050707060000789898B2
:1015600078181818020202060202C0C0020202061F
:1015700002FF408003050506000340C04040E0052F
:101580000707060001708888887000F805050506C1
:101590000001A0502850A00507070600008890A869
:1015A00058B808080507070600008890B848982032
:1015B00038050808060000C040C048D838080805AB
:1015C00007070600002000204080887005080806F4
:1015D00000004020007088F8888805080806000090
:1015E0001020007088F88888050808060000205040
:1015F000007088F888880508080600006890007068
:1016000088F888880508080600005000708888F867
:1016100088880508080600002050207088F888880F
:101620000507070600003860A0B8E0A0B805080864
:101630000600FF708880808870206005080806001A
:1016400000402000F880F080F80508080600000837
:101650001000F880F080F80508080600002050000F
:10166000F880F080F80507070600005000F880F0C9
:1016700080F8030808060100804000E0404040E098
:10168000030808060100204000E0404040E0030855
:101690000806010040A000E0404040E003070706C4
:1016A0000100A000E0404040E00507070600007090
:1016B0004848E84848700508080600006890008817
:1016C000C8A8988805080806000040207088888807
:1016D00088700508080600001020708888888870C7
:1016E00005080806000020500070888888700508EA
:1016F0000806000068900070888888700508080651
:101700000000500070888888887005050506000173
:1017100088502050880508080600FF1070A8A8A867
:10172000A87040050808060000402088888888883E
:1017300070050808060000102088888888887005D1
:10174000080806000020500088888888700508086E
:101750000600005000888888888870050808060000
:101760000010208850202020200509090600FFC015
:1017700040704848704040E00408080601FF60904F
:1017800090A09090E08005080806000040200070BE
:10179000087888780508080600001020007008788E
:1017A00088780508080600002050007008788878BE
:1017B000050808060000689000700878887805071A
:1017C00007060000500070087888780508080600B1
:1017D000002050207008788878050606060000D0A2
:1017E0002878A0A8500506060600FF7080887020A3
:1017F000600508080600004020007088F880700529
:1018000008080600001020007088F880700508089D
:101810000600002050007088F88070050707060059
:101820000050007088F880700308080601008040AE
:101830000040C04040E0030808060100204000408E
:10184000C04040E003080806010040A00040C0403E
:1018500040E0030707060100A00040C04040E0054B
:101860000707060000A040A0107888700508080649
:101870000000689000B0C888888805080806000045
:101880004020007088888870050808060000102035
:1018900000708888887005080806000020500070D5
:1018A000888888700508080600006890007088889D
:1018B000887005070706000050007088888870054A
:1018C00005050600012000F800200507070600FFB7
:1018D0001070A8A8A8704005080806000040200065
:1018E0008888889868050808060000102000888805
:1018F00088986805080806000020500088888898A5
:101900006805070706000050008888889868050960
:10191000090600FF102000888888F808700407076F
:101920000601FFC04060506040E00508080600FF67
:1019300050008888887808707C3C3E5E2B3D3F2FA5
:101940005B5D3B2C2A225C000000000000000000D0
:101950000000000000000000000000000000000087
:101960000000000000000000000000000000000077
:101970000000000000000000000000000000000067
:101980000000000000000000000000000000000057
:101990000000000000000000000000000000000047
:1019A0000000000000000000000000000000000037
:1019B00000000000000000000000FFFC07FFE03F07
:1019C000FF80FFE000000000FFFC07FFE03FFF801A
:1019D000FFF800000000FFFC07FFE03FFF80FFFC76
:1019E00000000000FFFC07FFE03FFF80FFFC00005D
:1019F00000000780003C0001E000F07C00000000D7
:101A00000780003C0001E000F03C0000000007807F
:101A1000003C0001E000F03C000000000780003CBA
:101A20000001E000F03C000000000780003C0001E5
:101A3000E000F07C000000000780003C0001E000B6
:101A4000FFFC000000000780003C0001E000FFF800
:101A5000000000000780003C0001E000FFE0000003
:101A600000000780003C0001E000FF800000000053
:101A70000780003C0001E000F0000000000007804B
:101A8000003C0001E000F000000000000780003C86
:101A90000001E000F000000000000780003C0001B1
:101AA000E000F000000000000780003C0001E000C2
:101AB000F00000000000FFFC07FFE03FFF80F000A7
:101AC00000000000FFFC07FFE03FFF80F000000087
:101AD0000000FFFC07FFE03FFF80F0000000000077
:101AE000FFFC07FFE03FFF80F00000000000000067
:101AF00000000000000000000000000000000000E6
:101B000000000000000000000000000000000000D5
:101B100000000000000000000000000000000000C5
:101B200000000000000000000000000000000000B5
:101B300000000000000000000000000000000000A5
:101B40000000000000000000000000000000000095
:101B50000000000000000000000000005A005900D2
:101B600020003F0058000920000000000000000095
:101B700000000000007FFFE0000827C10400800093
:101B8000000000007000E0000C64218C0080000068
:101B900000000061F860000AA421540080000000E9
:101BA000000041F820000AA421547088E2C000001F
:101BB0000040F020000927C12408911120000000F6
:101BC000406020000824010478E1E1000000005892
:101BD00001A07F88240104889101004104005C6316
:101BE000A0FFC82401047C88E3802082005EF7A067
:101BF000FFC0000000000000002082005EF7A0FF90
:101C0000C0000000000000004104005C63A07F8869
:101C1000260000000000008208005801A07F8822F2
:101C2000200000080001041000406020FFC82220AE
:101C3000800008006104100040F020FFC822780DE9
:101C40000E1E389082080041F820FFC822218A81A8
:101C500008441041040061F8603F0822208A8F0880
:101C600078600000007000E01E0822208A91084081
:101C700081FFFF807FFFE00C07C719CA8F8638F10C
:101C8000FFFF8000000000000000000000000000D6
:101C900000007FFFE0000827C10400800000000072
:101CA000007000E0000C64218C0080000000000047
:101CB000630C60000AA4215400800000000000476B
:101CC0000E20000AA421547088E2C00000004F0FCB
:101CD00020000927C124089111200000005F0FA0F7
:101CE000000824010478E1E1000000005E07A07F05
:101CF0008824010488910100410400406020FFC84D
:101D00002401047C88E38020820040F020FFC00092
:101D100000000000000020820040F020FFC0000012
:101D200000000000004104004060207F8826000081
:101D3000000000008208005E07A07F8822200000CB
:101D40000800010410005F0FA0FFC82220800008D7
:101D500000610410004F0F20FFC822780D0E1E38BE
:101D600090820800470E20FFC822218A8108441073
:101D7000410400630C603F0822208A8F08786000CD
:101D800000007000E01E0822208A91084081FFFFB9
:101D9000807FFFE00C07C719CA8F8638F1FFFF80EC
:101DA000000000536574205A5F4F666673657400C7
:101DB00043616E63656C004F4B004D61696E004876
:101DC000656174696E6720646F6E652E003F002048
:101DD000573A0048656174696E672E2E2E004631B1
:101DE0003530532072656164792E00426564206449
:101DF0006F6E652E003F0020573A00426564204810
:101E0000656174696E672E00205A3A0020593A00C5
:101E100020436F756E7420583A200020453A002008
:101E20005A3A0020593A00583A007A5F70726F624D
:101E3000653A20007A5F6D61783A20007A5F6D69BB
:101E40006E3A2000795F6D61783A2000785F6D61AD
:101E5000783A20004D36303020486F74656E64202B
:101E6000746F6F20636F6C6420746F206368616EA1
:101E700067652066696C616D656E74004368616EAC
:101E800067652066696C616D656E740024F4D430FA
:101E900050C38E20C2A24017828B7011127A910D0E
:101EA000816CD90AA861E108C758660761514306E9
:101EB0001E4B5D05C145A7041A411104093D980355
:101EC000713931034036DB0265339102D43054025C
:101ED000802E1D02632CEE01752AC501B028A001D9
:101EE000102781018F2564012B244B01E02234014E
:101EF000AC211F018D200D01801FFC00841EED0010
:101F0000971DDF00B81CD200E61BC600201BBC00DA
:101F1000641AB200B219A8000A19A0006A18990040
:101F2000D117910040178B00B516840031167E0042
:101F3000B31579003A157300C7146F0058146A007E
:101F4000EE1366008813630025135E00C7125B0062
:101F50006C12570015125400C111510070114F003E
:101F600021114B00D61049008D1047004610440047
:101F700002104200C00F4000800F3E00420F3C00A4
:101F8000060F3B00CB0E3800930E37005C0E350079
:101F9000270E3400F30D3200C10D3100900D3000DA
:101FA000600D2E00320D2D00050D2C00D90C2B00DC
:101FB000AE0C2900850C29005C0C2700350C27008D
:101FC0000E0C2600E80B2400C40B2400A00B2300F9
:101FD0007D0B23005A0B2100390B2100180B200028
:101FE000F80A1F00D90A1E00BB0A1E009D0A1D0028
:101FF000800A1D00630A1C00470A1B002C0A1B00F4
:10200000110A1A00F7091A00DD091900C40919009C
:10201000AB091900920917007B0918006309170022
:102020004C09160036091600200916000A09150089
:10203000F5081500E0081400CC081400B8081400D6
:10204000A4081400900813007D0812006B08130008
:102050005808120046081200340811002308110025
:102060001208110001081100F0071000E00710002D
:10207000D0071000C0071000B0070F00A107100024
:1020800091070E0083070F0074070F0065070E000D
:1020900057070E0049070E003B070D002E070E00E4
:1020A00020070D0013070D0006070D00F9060C00B0
:1020B000ED060D00E0060C00D4060C00C8060C006E
:1020C000BC060C00B0060C00A4060B0099060C0020
:1020D0008D060B0082060B0077060B006C060B00CA
:1020E00061060A0057060B004C060A0042060A0069
:1020F00038060A002E060A0024060A001A060A00FC
:102100001006090007060A00FD050900F40509008C
:10211000EB050900E2050900D9050900D005090011
:10212000C7050900BE050900B5050800AD05080092
:10213000A50509009C050800940508008C05080009
:10214000840508007C050800740508006C0507007C
:10215000650508005D050700560508004E050700E7
:10216000470507004005080038050700310507004E
:102170002A050700230507001C05060016050700B1
:102180000F0507000805060002050700FB0406000E
:10219000F5040700EE040600E8040600E204070068
:1021A000DB040600D5040600CF040600C9040600BF
:1021B000C3040600BD040600B7040600B104050010
:1021C000AC040600A6040600A00405009B0406005B
:1021D00095040500900406008A04050085040500A6
:1021E000800406007A0405007504050070040500EB
:1021F0006B04050066040500610405005C0405002D
:1022000057040500520405004D040500480405006C
:10221000430405003E0404003A04050035040500AB
:10222000300404002C0405002704040023040500E6
:102230001E0404001A04040016040500110404001E
:102240000D04040009040500040404000004040053
:10225000FC030400F8030400F4030400F00304008A
:10226000EC030400E8030400E4030400E0030400BA
:10227000DC030400D8030400D4030400D0030400EA
:10228000CC030400C8030300C503030024F404D9ED
:10229000201BC40C5C0E9804C4095F026507710121
:1022A000F405F900FB04B30048048700C10369008A
:1022B0005803550003034500BE023A008402310072
:1022C00053022A002902250004022000E4011C0018
:1022D000C8011900AF011700980114008401130010
:1022E000710110006101100051010E0043010D0049
:1022F00036010B002B010B0020010B00150109001A
:102300000C01090003010800FB000800F3000800AD
:10231000EB000700E4000600DE000600D80006001F
:10232000D2000600CC000500C7000500C200050071
:10233000BD000400B9000400B5000400B1000400B1
:10234000AD000400A9000400A5000300A2000300E2
:102350009F0004009B00030098000300950002000A
:1023600093000300900003008D0002008B00030027
:102370008800020086000200840003008100020041
:102380007F0002007D0002007B0002007900020055
:102390007700010076000200740002007200010064
:1023A000710002006F0002006D0001006C0002006D
:1023B0006A00010069000200670001006600010078
:1023C000650001006400020062000100610001007C
:1023D000600001005F0002005D0001005C00010080
:1023E0005B0001005A000100590001005800010083
:1023F0005700010056000100550001005400010083
:102400005300000053000100520001005100010080
:10241000500001004F0001004E0000004E0001007E
:102420004D0001004C0001004B0000004B0001007A
:102430004A00010049000100480000004800010076
:102440004700010046000000460001004500000072
:10245000450001004400010043000000430001006A
:102460004200000042000100410000004100010064
:10247000400001003F0000003F0001003E0000005E
:102480003E0001003D0000003D0001003C00000056
:102490003C0000003C0001003B0000003B0001004C
:1024A0003A0000003A000100390000003900010044
:1024B000380000003800000038000100370000003C
:1024C0003700010036000000360000003600010031
:1024D0003500000035000000350001003400000028
:1024E000340000003400010033000000330000001D
:1024F0003300010032000000320000003200010011
:102500003100000031000000310001003000000007
:1025100030000000300001002F0000002F000000FC
:102520002F0000002F0001002E0000002E000000F0
:102530002E0001002D0000002D0000002D000000E5
:102540002D0001002C0000002C0000002C000000D9
:102550002C0001002B0000002B0000002B000000CD
:102560002B0001002A0000002A0000002A000000C1
:102570002A000100290000002900000029000000B5
:1025800029000000290001002800000028000000A8
:10259000280000002800000028000100270000009B
:1025A000270000002700000027000000270001008E
:1025B0002600000026000000260000002600000083
:1025C0002600010025000000250000002500000075
:1025D0002500000025000000250001002400000067
:1025E000240000002400000024000000240001005A
:1025F000230000002300000023000000230000004F
:10260000230000002300000023000100220000003E
:102610002200000022000000220000002200000032
:102620002200010021000000210000002100000024
:102630002100000021000000210000002100010015
:10264000200000002000000020000000200000000A
:1026500020000000200000002000000020000100F9
:102660001F0000001F0000001F0000001F000000EE
:102670001F0000001F0000001F0001001E000000DE
:102680001E0000001E0000001E0000004D38342017
:10269000582059205A20450020496E76616C6964A3
:1026A00020657874727564657220000000484300EC
:1026B0000016430000254300000000000000000059
:1026C0000000005761726E696E673A20486F6D694D
:1026D0006E672042756D702044697669736F722051
:1026E0003C20310073796E635F706C616E5F706F58
:1026F000736974696F6E0073657475705F666F726D
:102700005F656E6473746F705F6D6F7665203E20D9
:10271000656E61626C655F656E6473746F7073285B
:1027200074727565290072756E5F7A5F70726F6280
:102730006500636C65616E5F75705F61667465727C
:102740005F656E6473746F705F6D6F7665203E2099
:10275000454E4453544F50535F4F4E4C595F464F74
:10276000525F484F4D494E47203E20656E6473745A
:102770006F70735F6E6F745F686F6D696E67282925
:10278000006465706C6F795F7A5F70726F6265006C
:102790003C3C3C2070726F62655F707400205A3A56
:1027A000200020593A200042656420583A20003E1B
:1027B0002050726F626553746F77202873746F773F
:1027C0005F7A5F70726F62652077696C6C20646FEE
:1027D000205A20526169736529003E2050726F6251
:1027E000654465706C6F79002C20003E20646F5F3B
:1027F000626C6F636B696E675F6D6F76655F746F38
:102800005F787920003E20646F5F626C6F636B6954
:102810006E675F6D6F76655F746F5F7A20005A2018
:10282000526169736520746F207A5F6265666F72AA
:10283000652000003E2050726F6265416374696FCD
:102840006E3A0070726F62655F7074203E3E3E00AB
:1028500029003C3C3C207365745F617869735F6953
:10286000735F61745F686F6D652800003E20686F5C
:102870006D655F6F66667365745B617869735D3DF6
:102880003D0029203E3E3E007365745F61786973A8
:102890005F69735F61745F686F6D65280029003C34
:1028A0003C3C20686F6D656178697328003E205359
:1028B0004552564F5F4C4556454C494E47203E20A9
:1028C0002873746F775F7A5F70726F626528292949
:1028D000003E204146544552207365745F6178691B
:1028E000735F69735F61745F686F6D65003E20544C
:1028F00052494747455220454E4453544F50003E9D
:1029000020656E61626C655F656E6473746F707371
:10291000287472756529000000A0400000A04000E6
:102920000000403E20656E61626C655F656E647399
:10293000746F70732866616C7365290000004843EA
:10294000000016430000254301010129003E3E3EE0
:1029500020686F6D656178697328004D32350047D6
:102960003238205A2046313030300D0A4D31303463
:102970002054302053300D0A4D3134302053300D67
:102980000A4D3138004E6F20534420636172640059
:102990005072696E742066726F6D205344005374D8
:1029A0006F70207072696E7400526573756D65206A
:1029B0007072696E74005061757365207072696E13
:1029C0007400436F6E74726F6C0050726570617248
:1029D000650054756E65005265636F766572792087
:1029E0005072696E74204A6F6200496E666F207380
:1029F000637265656E0042616279737465707069B7
:102A00006E67205A0043616E63656C20616C6C00D8
:102A100042656400426564004E6F7A7A6C65004ED0
:102A20006F7A7A6C650053706565640053706565F4
:102A300064004E6F7A7A6C6520676170004D616941
:102A40006E0056657273696F6E004D616368696EE2
:102A500065004D616368696E6520496E666F00436D
:102A6000616E63656C20616C6C004D6F76652061F2
:102A700078697300473238004175746F20686F6D54
:102A80006500526574726163740046696C616D65BE
:102A90006E7420496E004D61696E004D6F76652041
:102AA00058004D6F76652059004D6F7665205A00AD
:102AB00045787472756465720045787472756465E2
:102AC00072004D6F7665205A004D6F766520590073
:102AD0004D6F76652058004D6F766520617869737B
:102AE000006F6B003E20636C616D705F746F5F738D
:102AF0006F6674776172655F656E6473746F70730F
:102B0000203E2041646420686F6D655F6F66667368
:102B100065745B5A5F415849535D3A0020746F6F8A
:102B2000206C6F6E6720657874727573696F6E20A4
:102B300070726576656E7465640020636F6C6420E6
:102B4000657874727573696F6E2070726576656EE4
:102B50007465640048656174696E67206661696CBC
:102B600065640048656174696E67206661696C65BB
:102B700064004D363030004D323500446F6F7220A6
:102B80006973206F70656E21004D323400446F6FA1
:102B90007220697320636C6F73656421004B494C2C
:102BA0004C45442E2000627573793A20706175732C
:102BB000656420666F7220696E707574006275734B
:102BC000793A2070617573656420666F7220757341
:102BD000657200627573793A2070726F6365737302
:102BE000696E67005072696E7465722068616C74FA
:102BF00065642E206B696C6C28292063616C6C65A0
:102C000064210073746F775F7A5F70726F62650022
:102C10004D6F766520302E316D6D004D6F766520DD
:102C2000316D6D004D6F76652031306D6D005072E5
:102C30006570617265004D616368696E6520496EFB
:102C4000666F00536574205A5F4F66667365740043
:102C50005365742046696C616D656E745F43686589
:102C6000636B00446F6F72204F70656E2043686520
:102C7000636B0054656D7065726174757265004CAC
:102C80006576656C20626564004D61696E004F6613
:102C900066004F6E2000436F6E74726F6C00446F5D
:102CA0006F7220436865636B2044697361626C6571
:102CB00000446F6F7220436865636B20456E6162EC
:102CC0006C6500436F6E74726F6C00426564004205
:102CD0006564004E6F7A7A6C65004E6F7A7A6C6527
:102CE00000436F6E74726F6C0043616E6E6F742080
:102CF000656E746572207375626469723A200002B1
:102D00002E2E004D61696E002E0A006F70656E20D8
:102D10006661696C65642C2046696C653A20002EFA
:102D20000A0046696C652073656C656374656400B0
:102D30002053697A653A200046696C65206F70659A
:102D40006E65643A20006F70656E206661696C651F
:102D5000642C2046696C653A20006F70656E2066B1
:102D600061696C65642C2046696C653A20004E6F81
:102D70007720646F696E672066696C653A2000226F
:102D800020706F73002220706172656E743A2200A9
:102D9000535542524F5554494E452043414C4C20C7
:102DA0007461726765743A22004B494C4C45442E5D
:102DB0002000747279696E6720746F2063616C6C97
:102DC000207375622D67636F64652066696C657337
:102DD000207769746820746F6F206D616E79206C44
:102DE0006576656C732E204D4158206C6576656C58
:102DF0002069733A0020746F6F206C6F6E672065D6
:102E00007874727573696F6E2070726576656E7412
:102E100065640020636F6C642065787472757369F3
:102E20006F6E2070726576656E7465640046696CBD
:102E3000652064656C657465643A0044656C65740E
:102E4000696F6E206661696C65642C2046696C65EB
:102E50003A20006F70656E206661696C65642C2095
:102E600046696C653A20006175746F25692E6700AC
:102E70004D3234004D3233202573002200656E71CF
:102E800075657565696E6720220053442063617221
:102E900064206F6B006F70656E526F6F7420666197
:102EA000696C656400766F6C756D652E696E69740A
:102EB000206661696C6564004572726F723A0053F6
:102EC0004420696E6974206661696C00486F6D65A5
:102ED00020582F59206265666F7265205A00486F2E
:102EE0006D6520582F59206265666F7265205A0003
:102EF0007365745F6265645F6C6576656C5F657150
:102F0000756174696F6E5F33707473007365745F9D
:102F10006265645F6C6576656C5F65717561746927
:102F20006F6E5F33707473003C3C3C2067636F646A
:102F3000655F473239003E20636F72726563746566
:102F400064205A20696E20473239003E20414654A1
:102F50004552206170706C795F726F746174696F33
:102F60006E5F78797A203E207A5F746D7020203D04
:102F700020003E204245464F5245206170706C79DA
:102F80005F726F746174696F6E5F78797A203E202A
:102F90007265616C5F7A203D20003E204245464FBD
:102FA0005245206170706C795F726F746174696FE3
:102FB0006E5F78797A203E207A5F746D7020203DB4
:102FC00020003E20332D706F696E74204C6576654D
:102FD0006C696E67004146544552206D6174726998
:102FE000782E7365745F746F5F6964656E7469745D
:102FF00079004245464F5245206D61747269782EC2
:103000007365745F746F5F6964656E746974790069
:103010004245464F5245206D61747269782E736542
:10302000745F746F5F6964656E74697479003F28BA
:1030300056296572626F7365204C6576656C2069F0
:103040007320696D706C61757369626C65202830DE
:103050002D34292E000067636F64655F4732392085
:103060003E3E3E004B64200023646566696E652029
:103070002044454641554C545F004B692000236471
:103080006566696E65202044454641554C545F0095
:103090004B70200023646566696E652020444546B8
:1030A00041554C545F00504944204175746F74750C
:1030B0006E652066696E6973686564212050757459
:1030C00020746865206C617374204B702C204B69F0
:1030D00020616E64204B6420636F6E7374616E7444
:1030E000732066726F6D2062656C6F7720696E74F5
:1030F0006F20436F6E66696775726174696F6E2EBB
:103100006800504944204175746F74756E6520667F
:1031100061696C6564212074696D656F7574005018
:103120004944204175746F74756E65206661696CE1
:103130006564212054656D706572617475726520D7
:10314000746F6F206869676800204B643A20002024
:103150004B693A2000204B703A200020436C617389
:103160007369632050494420002054753A200020A0
:103170004B753A2000206D61783A2000206D696E11
:103180003A200020643A200020626961733A2000EE
:10319000626564002C2073797374656D2073746F9D
:1031A0007070656421204865617465725F49443AB6
:1031B00020006563686F3A0040012C017301220111
:1031C000AB011801F3010E0148020401AC02FA0040
:1031D0002A03F000C303E6008004DC006D05D20082
:1031E0006C06C800C707BE007009B4006D0BAA00CA
:1031F000CB0DA000CF138C00F21B7800E9246400F3
:10320000142E50009C353C00B83A2800A03D140014
:103210000B3F0000544845524D414C2052554E4101
:1032200057415900546865726D616C2052756E612A
:10323000776179004572723A204D415854454D509E
:10324000004D415854454D5020747269676765724E
:103250006564004572723A204D494E54454D500008
:103260004D494E54454D50207472696767657265CB
:1032700064004572723A204D494E54454D502042EB
:103280004544004D494E54454D502074726967675E
:1032900065726564004572723A204D415854454D3F
:1032A0005020424544004D415854454D50207472C1
:1032B0006967676572656400FFE0FFD11000FFFE7B
:1032C000FFD0FFE0FFC1FFD1E240A0C8A6A32FF8C6
:1032D00000238127AC00AFFF64A5FF64FF64A4FF57
:1032E000D0FFFE00002100240027002A002D00301E
:1032F00000330001010000040107010A010000225F
:1033000000250028002B002E0031003400020100AF
:1033100000050108010B0100002000230026002900
:10332000002C002F003200000100000301060109FB
:103330000105050505070508080808020202020A3A
:103340000A08080404040401010101010101010348
:1033500003030303030303040707070C0C0C0C0C03
:103360000C0C0C0202020206060606060606060BF6
:103370000B0B0B0B0B0B0B0102102020080810206D
:1033800040102040800201020108040201010204F1
:1033900008102040808040201008040201800402B0
:1033A0000180402010080402010804020101020407
:1033B0000810204080010204081020408020403A7C
:1033C000002042403A00202F0020423A00202F00E7
:1033D00020543A00526573656E643A20000039C685
:1033E000F3C011241FBECFEFD1E2DEBFCDBF00E09E
:1033F0000CBF15E0A0E0B2E0E2E8FEEA01E00BBF9E
:1034000002C007900D92AE37B107D9F726E1AEE7BB
:10341000B5E001C01D92A737B207E1F719E1C0EF8F
:10342000D9E100E006C021970109802FFE010E942A
:10343000A4D6CF3ED10780E00807A9F70E94F3AFDA
:103440000C9430D70C9400002F923F924F925F92D1
:103450006F927F928F929F92AF92BF92CF92DF92A4
:10346000EF92FF920F931F93CF93DF93CDB7DEB709
:10347000C055D1090FB6F894DEBF0FBECDBF209165
:10348000B30C3091B40C40E3429FC001439F900DB8
:1034900011248D5C944F9093B9058093B805809169
:1034A0009A1080FF22C0E2EBF1E38491882341F07F
:1034B0009091C00095FFFCCF8093C6003196F5CF68
:1034C000E091B805F091B9058191882339F0909188
:1034D000C00095FFFCCF8093C600F6CF8091C0005E
:1034E00085FFFCCF8AE08093C6002091B80530911B
:1034F000B905F90180812F5F3F4F8032D1F3F093FE
:10350000B905E093B8058E34D1F4818190ED980F20
:103510009A3010F08D3299F432969F012F5F3F4F11
:10352000808180538A3010F4F901F7CFDF013196A2
:103530008C918032D9F3B093B905A093B805C090AF
:10354000B805D090B9056AE270E0C6010E94F8D6CD
:10355000009749F0FC0131968291803211F08A3255
:1035600011F41082F9CF96012F5F3F4FF90180814E
:103570002F5F3F4F8032D1F3805321E025962FAF4C
:1035800025978A3018F025961FAE25978A3010F0BF
:103590000C94212E00E010E09AE0909FB001919FE2
:1035A000700D11248B01005311098191080F111D19
:1035B00087FD1A95808180538A3078F37F01319698
:1035C000D7018C918032D1F3F6018081F092A7056A
:1035D000E092A60521E030E03093EB0D2093EA0D58
:1035E0008D3409F47FC5843511F40C94A92D8734EA
:1035F00011F00C941A2E0C31110509F4ACC378F4B7
:103600000430110530F48091C70202301105B0F189
:103610003FC00430110509F457C30C941D2E0A3520
:10362000110509F4F7C400F50D31110509F47DC445
:103630000E31110511F00C941D2E0E94C45E0E94E3
:10364000DCA10E942B5F80E090E0A6E9B4E48093C7
:10365000110290931202A0931302B09314020E94DD
:10366000F35FE3EBF3E06CC40B35110509F4D6C44A
:103670000C35110509F4D7C40C941D2E882311F4C0
:103680000C941D2E0E94A79F0E942B770C941D2E38
:10369000882311F40C941D2E0E94A79F89E40E9498
:1036A0008F64882329F00E94BA646B017C0103C0F7
:1036B000C12CD12C76018AE40E948F64882339F0D2
:1036C0000E94BA6468AB79AB8AAB9BAB04C018AA02
:1036D00019AA1AAA1BAA28A939A94AA95BA9C7012C
:1036E000B6010E9422D529966CAF7DAF8EAF9FAFF9
:1036F00029978091540F9091550FA091560FB0913A
:10370000570F8CA39DA3AEA3BFA39C01AD01C7011E
:10371000B6010E94C6D22D966CAF7DAF8EAF9FAF23
:103720002D978091580F9091590FA0915A0FB091F9
:103730005B0F8CA79DA7AEA7BFA79C01AD0168A991
:1037400079A98AA99BA90E94C6D261966CAF7DAF68
:103750008EAF9FAF619780915C0F90915D0FA091AC
:103760005E0FB0915F0F8CAB9DABAEABBFAB9C015E
:10377000AD0160910F0B7091100B8091110B909126
:10378000120B0E94C5D268AF79AF8AAF9BAFD70149
:10379000C601B05888A399A3AAA3BBA388A999A9D5
:1037A000AAA9BBA9B05888A799A7AAA7BBA7809127
:1037B000070B9091080BA091090BB0910A0B8CAFED
:1037C0009DAFAEAFBFAF2D962CAD3DAD4EAD5FAD55
:1037D0002D97BC01CD010E94C5D26B017C01809167
:1037E0000B0B90910C0BA0910D0BB0910E0B24962E
:1037F0008CAF9DAFAEAFBFAF249761962CAD3DAD02
:103800004EAD5FAD6197BC01CD010E94C5D24B01A9
:103810005C01A701960168A179A18AA19BA10E94E0
:1038200039C92B013C01A501940168A579A58AA598
:103830009BA50E9439C99B01AC01C301B2010E9442
:10384000C6D22B013C01A501940168A179A18AA1EE
:103850009BA10E9439C94B015C01A701960168A593
:1038600079A58AA59BA50E9439C99B01AC01C50118
:10387000B4010E94C5D2A30192010E9444D36B01FE
:103880007C0120E030E0A9010E9402CD87FF0AC040
:103890002BED3FE049EC50E4C701B6010E94C6D2CF
:1038A0006B017C010230110551F42BED3FE049EC36
:1038B00050E4C701B6010E94C5D26B017C0120E033
:1038C00030E0A901C701B6010E9402CD811124C0D8
:1038D0002CAD3DAD4EAD5FAD6CA17DA18EA19FA184
:1038E0000E9402CD811118C024962CAD3DAD4EAD85
:1038F0005FAD24976CA57DA58EA59FA50E9402CDE6
:1039000081110AC02BED3FE049EC50E4C701B6013C
:103910000E94C6D26B017C01A701960129966CAD6D
:103920007DAD8EAD9FAD29970E9439C928AD39ADC7
:103930004AAD5BAD5F770E9422D54B015C012FE65B
:1039400032E143E85AE30E9402CD87FDB9C1C501C7
:10395000B4010E945AD40E942BD47DA76CA7DB012E
:10396000AB2B21F4E1E0F0E0FDA7ECA74090600F65
:103970005090610F6090620F7090630F2CA53DA571
:10398000B90180E090E00E9406CD4B015C019B01F3
:10399000AC01C701B6010E94B4D36CA37DA38EA372
:1039A0009FA3A501940168AD79AD8AAD9BAD0E943E
:1039B000B4D324966CAF7DAF8EAF9FAF2497A30195
:1039C00092016091130B7091140B8091150B9091E3
:1039D000160B0E94C5D2A50194010E94B4D329966A
:1039E0006CAF7DAF8EAF9FAF299720E030E040E015
:1039F0005FE36CA17DA18EA19FA10E9439C92CA17A
:103A00003DA14EA15FA10E9439C99B01AC0160E0BC
:103A100070E080E89FE30E94C5D268AF79AF8AAFBB
:103A20009BAF8CA99DA9AEA9BFA989879A87AB87AF
:103A3000BC874D865E866F86788A60912102709180
:103A40002202072E000C880B990B0E9408CD2091B2
:103A500011023091120240911302509114020E94FF
:103A600039C920E030E040E752E40E94B4D320E0BE
:103A700030E048EC52E40E94B4D36CAF7DAF8EAF1F
:103A80009FAF48A059A06AA07BA01CAA222423941F
:103A9000312CACA5BDA5A215B30509F4EBC08CA9CA
:103AA0008F5F8931F0F58CAB28A539A54AA55BA5B8
:103AB00068AD79AD8AAD9BAD0E9439C96B017C01BF
:103AC0009201A3016CA17DA18EA19FA10E9439C981
:103AD000A70196010E94C6D27B018C019201A3012D
:103AE00068AD79AD8AAD9BAD0E9439C94B015C01CF
:103AF00028A539A54AA55BA56CA17DA18EA19FA192
:103B00000E9439C99B01AC01C501B4010E94C5D214
:103B10002B013C01C701D80188A799A7AAA7BBA779
:103B20004CC0B10180E090E00E9406CD2CA13DA1E7
:103B30004EA15FA10E9439C94B015C010E94B1D323
:103B40006B017C01C501B4010E94F1D54B015C0100
:103B5000A701960168A179A18AA19BA10E9439C9F8
:103B60002B013C01A501940168A979A98AA99BA907
:103B70000E9439C9A30192010E94C6D22B013C01C7
:103B8000A501940168A179A18AA19BA10E9439C9CC
:103B90004B015C01A701960168A979A98AA99BA993
:103BA0000E9439C99B01AC01C501B4010E94C5D274
:103BB00068A779A78AA79BA71CAA9201A3012D96A3
:103BC0006CAD7DAD8EAD9FAD2D970E94C6D2698341
:103BD0007A838B839C8328A539A54AA55BA561962A
:103BE0006CAD7DAD8EAD9FAD61970E94C6D26D83E9
:103BF0007E838F83988724962CAD3DAD4EAD5FAD0F
:103C0000249769857A858B859C850E94C6D26987B1
:103C10007A878B879C8729962CAD3DAD4EAD5FADE5
:103C200029976D857E858F8598890E94C6D26D877C
:103C30007E878F87988BCE0101960E943D76E9841E
:103C4000FA840B851C852D813E814F8158856981C1
:103C50007A818B819C811F928CAC9DACAEACBFAC49
:103C6000FE013D966F010E94A587FFEF2F1A3F0AC4
:103C70000F900FCFE0900F0BF090100B0091110BF5
:103C80001091120B20910B0B30910C0B40910D0BEE
:103C900050910E0B6091070B7091080B8091090BEE
:103CA00090910A0B1F928CAC9DACAEACBFACE3E123
:103CB000CE2EEBE0DE2E0E94A5870E94715F0F9052
:103CC0000E944A330C941D2E80E50E948F64882345
:103CD00029F00E94AF646B017C0103C0C12CD12C80
:103CE000760183E50E948F64882361F00E94BA64A4
:103CF00020E030E04AE754E40E9439C90E942BD406
:103D00006B017C010E94DCA10E944A338091E20D8C
:103D10009091E30DA091E40DB091E50DC80ED91E70
:103D2000EA1EFB1E80917402811105C060E086E3EB
:103D300093E00E94A23F0E946DAEDC01CB018C1982
:103D40009D09AE09BF09B7FD02C00C941D2E80E08D
:103D50000E94AA6FF0CF80919A1085FF14C0EBE902
:103D6000F3E08491882341F09091C00095FFFCCF4F
:103D70008093C6003196F5CF8091C00085FFFCCFBF
:103D80008AE08093C6000E94DCA10E94BA810E9452
:103D90002B5F0E94675F1092110210921202109224
:103DA00013021092140288E50E948F64082F89E59F
:103DB0000E948F64182F8AE50E948F64011105C04C
:103DC000111105C091E0982705C0111102C090E0C3
:103DD00001C0982F90930002911102C08823D9F05E
:103DE00082E090E00E94906280919A1085FF0FC05F
:103DF000EDE8F3E08491882341F09091C00095FFB5
:103E0000FCCF8093C6003196F5CF0E94B28080919E
:103E10000002811102C00023D9F080E090E00E94EE
:103E2000906280919A1085FF0FC0E5E8F3E08491DD
:103E3000882341F09091C00095FFFCCF8093C6008D
:103E40003196F5CF0E94B28080910002811102C0AC
:103E50001123B9F081E090E00E94906280919A1065
:103E600085FF0FC0EDE7F3E08491882341F0909146
:103E7000C00095FFFCCF8093C6003196F5CF0E941D
:103E8000B2800E947B5F10920F0280919A1085FF92
:103E900014C0EDE4F3E08491882341F09091C000D8
:103EA00095FFFCCF8093C6003196F5CF8091C0007E
:103EB00085FFFCCF8AE08093C600809180059091B9
:103EC0008105A0918205B0918305809311029093A2
:103ED0001202A0931302B093140280917E05909178
:103EE0007F0590932202809321020E944A33109210
:103EF000310680919A1085FF14C0EFE3F3E08491BE
:103F0000882341F09091C00095FFFCCF8093C600BC
:103F10003196F5CF8091C00085FFFCCF8AE0809379
:103F2000C6000E946F520C941D2E0E94209A0C9481
:103F30001D2E9091C00095FFFCCF8093C600319656
:103F400084918111F6CF20E030E040E450E46091AC
:103F5000540F7091550F8091560F9091570F0E94FA
:103F6000C6D227E137EB41ED58E30E94C6D242E0CA
:103F70000E943B80EEEAF3E08491882341F0909127
:103F8000C00095FFFCCF8093C6003196F5CF20E0AE
:103F900030E0A9016091580F7091590F80915A0F2C
:103FA00090915B0F0E94C6D227E137EB41ED58E3B9
:103FB0000E94C6D242E00E943B80E9EAF3E084918D
:103FC000882341F09091C00095FFFCCF8093C600FC
:103FD0003196F5CF27E137EB41ED58E360915C0F67
:103FE00070915D0F80915E0F90915F0F0E94C6D21D
:103FF00042E00E943B808091C00085FFFCCF8AE0B8
:104000008093C6000E94DF5E0E94016F0E946F5283
:104010000C941D2E1092A5050C941D2E81E080930A
:10402000A5050C941D2E85E40E948F64982E8111A5
:1040300002C00E94DCA159EDA52E52E0B52E64E528
:10404000C62E6FE0D62E74E8E72E75E0F72E812C91
:1040500000E010E0D5018D915D010E948F648823FE
:1040600041F1F60140805180628073800E94BA6401
:10407000D6016D937D938D939C9313970330110517
:10408000C1F0A30192010E94C5D29B01AC01F701CE
:1040900060817181828193810E94C6D2D7016D9324
:1040A0007D938D939C931397C8010E944662882448
:1040B00083940F5F1F4FB4E0CB0ED11CE4E0EE0EF3
:1040C000F11C0430110531F6882021F00E947B5F3D
:1040D0000C941D2E992011F40C941D2E0E94E58144
:1040E0000C941D2E0137110509F49DC408F0B7C0CA
:1040F0000A32110509F4ABC308F05AC007311105A3
:1041000009F468C270F50231110509F44FC5D8F4FD
:104110000230110508F468C10131110511F00C9449
:104120001D2E60E08DEE93E00E94A23F5F988A987A
:104130009FB7F894809108018E7F809308019FBFFC
:1041400012980C941D2E0531110509F439C208F09E
:104150003BC20431110511F00C941D2EE4E0F4E093
:10416000E7C10B31110509F478C238F409311105A2
:1041700009F442C208F435C262C20E31110509F4D5
:10418000B9C260F40C31110511F00C941D2E40E001
:1041900060E0C7010E9484820C941D2E0F3111052E
:1041A00009F415C30032110509F4BEC20C941D2E8A
:1041B0000C35110509F44BC530F50135110509F42D
:1041C000D3C488F40C34110509F445C30D3411052A
:1041D00009F445C30B34110511F00C941D2E0E94F7
:1041E00014C10C941D2E0335110509F4DAC408F42A
:1041F000D4C40435110509F4D9C40535110509F4F1
:104200000CC50C941D2E0B36110509F49CC460F4EA
:104210000936110509F44FC408F06FC408361105BA
:1042200009F421C30C941D2E0E36110509F476C332
:1042300048F40D36110511F00C941D2E0E94CDBED0
:104240000C941D2E0F36110509F47BC300371105A0
:1042500011F00C941D2E86E994E00E94726F0D3DC2
:10426000110509F4D7C708F04DC00139110509F44B
:104270008FC510F50737110509F487C588F4033792
:10428000110509F4AEC008F472C50537110511F027
:104290000C941D2E60E0C7010E94BC3F0C941D2EA3
:1042A0000937110509F46CC508F464C50C3811050B
:1042B00009F4EAC30C941D2E0B3C110509F489C6C0
:1042C00088F4083C110509F417C6093C110509F4E6
:1042D00061C60E3B110511F00C941D2E0E94C5BD48
:1042E0000C941D2E0D3C110509F40BC708F48FC664
:1042F0000E3C110509F463C70C3D110509F47BC799
:104300000C941D2E0C3AF1E01F0711F40C94A02A16
:1043100068F50E3231E0130711F40C94462A70F45C
:104320000C3291E0190709F4E8C710F00C94A229A7
:10433000023E110509F48AC70C941D2E0033B1E02A
:104340001B0711F40C94A52910F40C945A2A003977
:10435000F1E01F0711F40C949D2A0A39114011F065
:104360000C941D2E0E9496A10C941D2E083532E04F
:10437000130711F40C94052CC0F4063F91E01907C3
:1043800011F40C946D2B073FA1E01A0711F40C9463
:10439000702B053F114011F00C941D2E0E94A53783
:1043A00080E00E9455330C941D2E003AE3E01E0776
:1043B00009F403C248F40335134011F00C941D2E88
:1043C000E2EBF1E30C948A2B073E33E0130711F480
:1043D0000C94082C0F30174211F40C94102C0C94F0
:1043E0001D2EE4EBF4E0BFC46CE070E088EE93E0D7
:1043F0000E94383380E50E948F64882371F00E9408
:10440000A2644C01990FAA08BB0811E08114910421
:10441000A104B10431F410E004C010E0812C912C0F
:10442000540183E50E948F648823D9F00E94BA6406
:1044300020E030E04AE754E40E9439C90E942BD4BE
:104440004B015C0111110FC0672B682B692B59F4CC
:10445000D7018C91882339F061E0C7010E94BC3FED
:1044600007C01123A9F360E087ED93E00E94A23F0B
:1044700081E080934E0D10924D0D0E94DCA10E94B0
:104480004A3381149104A104B10439F18091E20D01
:104490009091E30DA091E40DB091E50D880E991E69
:1044A000AA1EBB1E83E090E09093EB0D8093EA0D73
:1044B0000E946DAEDC01CB0188199909AA09BB09DC
:1044C000B7FD02C00C945E2E0E94453F81110C94F2
:1044D0005E2E80E00E94AA6FEBCF83E090E0909385
:1044E000EB0D8093EA0D0E94453F811103C00E94AD
:1044F000AA6FF9CF81E090E09093EB0D8093EA0DE5
:1045000080911B1360E0882331F088EC93E00E94D7
:10451000A23F0C941D2E8BEB93E00E94A23F0C94C3
:104520001D2E9091C00095FFFCCF8093C600319660
:1045300084918111F6CF8091C00085FFFCCF8AE085
:104540008093C6001092A1151092A0158CE493E1FF
:104550000E945A398BE1ECE4F3E1DE0115960190FB
:104560000D928A95E1F780914A1390914B139C83A9
:104570008B838FE993E09A83898340E050E0BE010A
:104580006F5F7F4F8DE394E00E9450A4CE010196AF
:104590000E946539E6EFF3E08491882341F0909121
:1045A000C00095FFFCCF8093C6003196F5CF809177
:1045B000C00085FFFCCF8AE08093C6000C941D2EBE
:1045C0000E941B940C941D2E10921B1310921C130E
:1045D0000C941D2E40E061E0C7010E9484820C947F
:1045E0001D2E80911C13882319F081E080931B13EA
:1045F0000E9414C10C941D2E80911B1381111092E6
:104600001B130E9449C10E94DCA184E294E09093B4
:10461000BD108093BC100E944B2F80911C068823F4
:1046200051F08091E00D882331F084E194E00E9404
:10463000B83F1092E00D0E94DCA10C941D2E8091D9
:104640001C13882311F40C941D2E83E50E948F64A3
:1046500081110C946A2E0C941D2E80911C138111D3
:1046600003C0E8E4F4E03AC0E6E3F4E08491882390
:1046700041F09091C00095FFFCCF8093C600319629
:10468000F5CF60919715709198158091991590913B
:104690009A154AE00E94E7A18091C00085FFFCCFF7
:1046A0008FE28093C600609193157091941580916C
:1046B0009515909196154AE00E94E7A18091C0005F
:1046C00085FFFCCF8AE08093C6000C941D2E90914C
:1046D000C00095FFFCCF8093C60031968491811174
:1046E000F6CF8091C00085FFFCCF8AE08093C600A2
:1046F0000C941D2E80911C13882311F40C941D2EF4
:1047000086EE94E10E949E4386EE94E10E94D0439F
:1047100010921A13109219138091A6059091A70573
:104720000E94DD980C941D2E80911B1381110E9414
:10473000DCA10091A6051091A70561E270E0C80117
:104740000E94F8D6009719F08C010F5F1F4F80E58B
:104750000E948F64882349F0FF24F3948091900590
:10476000909191058017910708F0F12C80911C130E
:10477000882311F40C941D2E4F2D61E0C8010E9476
:10478000848283E50E948F64882349F0809190059C
:10479000909191058017910710F40C947D2E8091D3
:1047A0001C13882319F081E080931B13F1100C94E3
:1047B0001D2E0E9414C10C941D2E81E080931A13AB
:1047C00040E060E0C7010E9484820C941D2E0E948C
:1047D000F67FBC0180E090E02CE330E040E050E068
:1047E0000E948AD27F936F933F932F9388E594E042
:1047F0009F938F938E010F5F1F4F1F930F930E9404
:10480000D4CC0FB6F894DEBF0FBECDBFE2EBF1E320
:104810008491811102C0F8010EC09091C00095FFF3
:10482000FCCF8093C6003196F3CF9091C00095FFE6
:10483000FCCF8093C60081918111F7CF8091C00099
:1048400085FFFCCF8AE08093C6000C941D2E0E9449
:1048500001C80C941D2E0E9449C10C941D2E0E946B
:1048600076980C941D2E88E690E00E94ADC08111D0
:104870000C941D2E80919A1083FF02C00C941D2E63
:1048800083E50E948F64882311F40C941D2E0E94EE
:10489000BA646B017C010091300B10E0C801880FF5
:1048A000991F9C01285D344F5901C701B6010E9430
:1048B00025D4D5016D937C93C8010E9487AA20E07E
:1048C00030E04AEA52E4C701B6010E9402CD181650
:1048D00044F00E94769860E082E794E00E94A23F54
:1048E00002C00E9414C1E091300BB4E0EB9FF001D4
:1048F0001124E85EF44F2081318142815381C70148
:10490000B6010E9411D5181614F00C941D2E60E00B
:1049100087E694E00E94A23F0C941D2E8EE40E9434
:104920008F64882311F40C941D2E0E94AF64609351
:1049300092057093930580939405909395050C943C
:104940001D2E83E50E948F64882319F00E94A264C3
:1049500001C080E080939A10E2EBF1E38491811131
:1049600003C0EFE8F4E00FC09091C00095FFFCCFCA
:104970008093C6003196F2CF9091C00095FFFCCF96
:104980008093C600319684918111F6CF80919A1060
:10499000811103C0EBE8F4E03AC04FE754E020E0B7
:1049A00030E060E07CE280919A1090E0022E02C03C
:1049B000959587950A94E2F780FF1AC0A1E0A60FAB
:1049C000662331F08091C00085FFFCCF7093C60054
:1049D000FA0185919491FC018491882341F0909192
:1049E000C00095FFFCCF8093C6003196F5CF6A2FAB
:1049F0002F5F3F4F4E5F5F4F26303105A1F60AC053
:104A00009091C00095FFFCCF8093C60031968491B1
:104A10008111F6CF8091C00085FFFCCF8AE08093A2
:104A2000C6000C941D2E83E50E948F64811103C083
:104A3000E2EBF1E314C00E94A264809341028D3343
:104A400010F40C941D2E8CE3809341020C941D2EC7
:104A50009091C00095FFFCCF8093C6003196849161
:104A60008111F6CF4091410250E060E070E08FE9A3
:104A700094E00E94B8328091C00085FFFCCF8AE0AC
:104A80008093C6000C941D2E80919A1083FF02C063
:104A90000C941D2E83E50E948F64882311F40C94DE
:104AA0001D2E0E94BA640E9425D47093000F60935B
:104AB000FF0E0C941D2E89E690E00E94ADC081117E
:104AC00016C0E6EAF4E08491882341F09091C0009A
:104AD00095FFFCCF8093C6003196F5CF0E946AC740
:104AE0008091C00085FFFCCF8AE08093C6001092C1
:104AF000EB0D1092EA0D0C94BA2E83E50E948F64A0
:104B0000882321F00E94A2648C0102C00FEF10E004
:104B100080E50E948F64882319F00E94A26402C07D
:104B200080E090E098010F3F110519F010F02FEF91
:104B300030E0892B11F00C941D2E3093C10D209381
:104B4000C00D0C941D2E80E50E948F64811106C05B
:104B50001092C10D1092C00D0C941D2E0E94A264E3
:104B6000892BB1F30C941D2E0E94E9AA0E94DCA1AE
:104B70000E94616F1092C10D1092C00D68EE73E03B
:104B800080E090E00E9435AE60E089EA94E00E9407
:104B9000A23F0E94CD3F0C941D2E1092A4050C94B0
:104BA0001D2E81E08093A4050C941D2E83E50E94A8
:104BB0008F648823A1F00E94BA6420E030E04AE7C5
:104BC00054E40E9439C90E942BD460933D02709333
:104BD0003E0280933F02909340020C941D2E88E584
:104BE0000E948F6481110C94912E89E50E948F643C
:104BF00081110C94912E8AE50E948F6481110C948E
:104C0000912E85E40E948F6481110C94912E0E9454
:104C1000DCA10E94616F0C941D2E83E50E948F64BD
:104C2000882311F40C941D2E0E94BA6420E030E019
:104C30004AE754E40E9439C90E942BD46093E60DE0
:104C40007093E70D8093E80D9093E90DF6C729ED79
:104C5000822E22E0922E04E41FE03EE7A32E30E1F4
:104C6000B32EEBE9F0E1F9A3E8A3312CD4018D9147
:104C70004D010E948F64882309F45EC0B3E03B12AB
:104C800054C00E94BA642B013C0120E030E040EAAD
:104C900051E40E9402CD87FF41C0A3019201F801B7
:104CA00060817181828193810E94B4D36B017C0108
:104CB0009B01AC0160916610709167108091681043
:104CC000909169100E9439C96093661070936710C3
:104CD0008093681090936910A7019601D5016D919A
:104CE0007D918D919C910E9439C9F50160837183FA
:104CF00082839383A8A1B9A16D917D918D919C919F
:104D00000E9406CDA70196010E9439C90E942BD4AA
:104D1000E8A1F9A16083718382839383D8014D92C6
:104D20005D926D927C92139707C00E94BA64F8015D
:104D3000608371838283938333940C5F1F4FF4E00D
:104D4000AF0EB11C28A139A12C5F3F4F39A328A376
:104D500034E033128BCF71C79091C00095FFFCCF28
:104D60008093C600319684918111F6CF66C70E9468
:104D70006F5263C781E080930F02809396055DC7F1
:104D800010920F021092960558C70E94F8BC55C7A2
:104D900083E50E948F64882349F10E94A2648230D7
:104DA00010F1E8EBFEE28491811103C0EEE5F5E03D
:104DB0000FC09091C00095FFFCCF8093C600319644
:104DC000F2CF9091C00095FFFCCF8093C600319642
:104DD00084918111F6CF8091C00085FFFCCF8AE0DD
:104DE0008093C6002AC7813009F443C088E40E943A
:104DF0008F64882389F00E94A2648A3A910534F076
:104E00008C3E91052CF08BEE90E002C08AEA90E097
:104E10009093BF0D8093BE0D86E40E948F6488231B
:104E200081F00E94A2648F3F910519F014F08FEF7A
:104E300090E097FF02C080E090E090939A05809305
:104E4000990582E40E948F64882309F4F6C60E94C3
:104E5000A2648036910514F08FE590E0863FAFEFB5
:104E60009A0714F486EF9FEF909398058093970527
:104E7000E4C688E40E948F64882389F00E94A264BB
:104E80008A3A910534F08C3E91052CF08BEE90E03F
:104E900002C08AEA90E09093A00580939F0586E483
:104EA0000E948F64882381F00E94A2648F3F910545
:104EB00019F014F08FEF90E097FF02C080E090E0CF
:104EC00090939E0580939D0582E40E948F648823C1
:104ED00009F4B3C60E94A2648036910514F08FE5F0
:104EE00090E0863FBFEF9B0714F486EF9FEF90930F
:104EF0009C0580939B05A1C688EC90E00E94ADC004
:104F000081119BC684E40E948F64882309F495C6AE
:104F10000E94BA646B017C0111E020E030E0A9013D
:104F20000E9402CD811101C010E01093EC0D20E031
:104F300030E0A901C701B6010E9402CD882339F1F2
:104F4000E091300B24E0E29FF0011124EE5BFD4F75
:104F5000C082D182E282F38220E030E0A901609138
:104F600042027091430280914402909145020E9456
:104F700002CD81110CC080E090E0A0E4B0E4809309
:104F8000420290934302A0934402B09345020E94D0
:104F90001A6F53C699EDE92E92E0F92E0BEA10E153
:104FA000D7018D917D010E948F64882349F00E9472
:104FB000BA640E942BD4F801608371838283938347
:104FC0000C5F1F4FF0E10B3B1F0751F70E947286E9
:104FD00034C619EDE12E12E0F12E0EE710E18EE855
:104FE000C82E80E1D82ED7018D917D010E948F645B
:104FF000882339F00E94BA64F80160837183828348
:1050000093830C5F1F4FC016D10669F716C683E560
:105010000E948F648823F9F00E94BA64AB01BC013E
:1050200040937210509373106093741070937510C6
:1050300040937610509377106093781070937910A6
:1050400089ED95E00E94C9328091C00085FFFCCFB8
:105050008AE08093C60080E50E948F648823B9F0BF
:105060000E94BA64AB01BC0140937210509373105C
:1050700060937410709375108CEB95E00E94C932A8
:105080008091C00085FFFCCF8AE08093C60082E556
:105090000E948F648823B9F00E94BA64AB01BC01FE
:1050A00040937A1050937B1060937C1070937D1026
:1050B0008DE995E00E94C9328091C00085FFFCCF48
:1050C0008AE08093C60084E50E948F64882309F4F7
:1050D000B4C50E94BA64AB01BC01409376105093F2
:1050E000771060937810709379108FE795E00E94A5
:1050F000C9328091C00085FFFCCF8AE08093C60052
:105100009CC583E50E948F64882351F00E94BA6495
:1051100060939610709397108093981090939910C5
:1051200084E50E948F64882351F00E94BA646093E2
:10513000921070939310809394109093951082E442
:105140000E948F64882361F00E94BA640E942BD46D
:1051500060938E1070938F108093901090939110A5
:1051600088E50E948F64882351F00E94BA6460939E
:105170006E1070936F1080937010909371108AE589
:105180000E948F64882351F00E94BA6460936A1071
:1051900070936B1080936C1090936D1085E40E9457
:1051A0008F64882309F449C50E94BA64609366102D
:1051B0007093671080936810909369103EC5B9EDA5
:1051C000EB2EB2E0FB2E00E010E0D7018D917D01C7
:1051D0000E948F64882339F00E94BA64AB01BC013D
:1051E000C8010E9470C00F5F1F4F0330110569F79F
:1051F0000E947B5F22C583E50E948F64882309F4A7
:105200001CC50E94BA640E9425D470932202609348
:10521000210213C583E50E948F64882309F40DC51C
:105220000E94BA640E9425D46B017C018DED90E050
:105230000E94ADC0811101C5E091300BF0E0EE0F8E
:10524000FF1FE659FD4FD182C082F7C480E50E945E
:105250008F64882309F4F1C40E94BA640E9425D4A3
:10526000F62E862F972F6C0183E50E948F6488238A
:1052700031F00E94BA640E9425D48B0102C00FEF66
:105280001FEFC8010196039708F0D7C4EDEDF2E0D7
:1052900081919191C816D90609F4CFC4B3E0E331E6
:1052A000FB07B1F7D7FCC9C40E94DCA1EF2C60E07A
:1052B0008F2D0E94D4AD0F3FEFEF1E0731F001306C
:1052C000110571F000E010E00DC08F2D0E9441C764
:1052D00031E020E0892B09F030E0032F122F02C0CB
:1052E00001E010E08E2D0E9441C78017910709F45C
:1052F000A4C480E00E94AA6FF5CF83E50E948F646A
:10530000882321F00E94A2648C0102C00EE610E006
:1053100080E50E948F64882369F00E94AF64693839
:10532000F3E17F078105910548F068E873E180E0CB
:1053300090E004C068EE73E080E090E0A8010E9475
:105340006C397BC40E94EDBB78C480E50E948F64F9
:10535000882351F00E94BA646093C3027093C40220
:105360008093C5029093C60289E40E948F648823CB
:1053700081F00E94BA642CE933E549E45EE30E94BF
:1053800039C96093050270930602809307029093D7
:10539000080284E40E948F64882381F00E94BA642A
:1053A0002CE933E549E45EE30E94B4D36093BF0285
:1053B0007093C0028093C1029093C2020E94F6A033
:1053C000E2EBF1E38491811103C0E3EBF3E00EC063
:1053D0009091C00095FFFCCF8093C6003196F2CF2C
:1053E0009091C00095FFFCCF8093C6008191811100
:1053F000F7CF6091C3027091C4028091C502909171
:10540000C60242E00E943B80E7EBF3E081918823F3
:1054100039F09091C00095FFFCCF8093C600F6CF85
:105420002CE933E549E45EE36091050270910602E0
:1054300080910702909108020E94B4D342E00E943A
:105440003B80EBEBF3E08191882339F09091C00031
:1054500095FFFCCF8093C600F6CF2CE933E549E4F5
:105460005EE36091BF027091C0028091C102909191
:10547000C2020E9439C942E00E943B808091C00074
:1054800085FFFCCF8AE08093C600D7C383E50E94E6
:105490008F64882319F00E94BA6403C060E070E052
:1054A000CB016093700270937102809372029093AB
:1054B0007302C3C385E40E948F64882321F00E9495
:1054C000A2647C0102C0E12CF12C83E40E948F6471
:1054D000882321F00E94A2646C0103C075E0C72EEE
:1054E000D12C85E50E948F64882329F00E94A26454
:1054F00001E0892B09F400E083E50E948F64882392
:1055000019F00E94BA6406C0F7FC0AC060E070E0BF
:1055100086E193E4E114F10439F41092300B04C0F5
:1055200060E070E08CE892E41092EB0D1092EA0DCE
:105530009601A7010E9460C180C30E94DCA17DC3C7
:1055400026E43DE039A328A320ED822E2DE0922E03
:1055500034E5E32E3FE0F32E42ECA42E4DE0B42ED2
:1055600053E2252E52E0352E6CE3C62E66E0D62E91
:1055700000E010E0A8A1B9A18D91B9A3A8A3882348
:1055800009F47EC0F1012081318142815381D5012E
:105590006D917D918D919C910E94C6D220E030E06A
:1055A00040E05FE30E9439C99B01AC01F7016081D3
:1055B0007181828193810E9411D5181634F4C6013D
:1055C0000E94ED5F9B01AC0103C020E030E0A90127
:1055D000D7016D917D918D919C910E94C5D22B0137
:1055E0003C0120E030E040EA51EC0E9411D5181651
:1055F00054F420E030E040EA51E4C301B2010E94DB
:1056000002CD87FD03C0E8EBFEE216C0A3019201C4
:10561000F40160817181828193810E94C5D2AB01C6
:10562000BC01C8010E9470C02BC09091C00095FFC2
:10563000FCCF8093C600319684918111F6CFEFE1C3
:10564000F6E007C09091C00095FFFCCF8093C600A4
:10565000319684918111F6CF8091C00085FFFCCFF7
:105660008AE08093C60081E196E00E94B83F48E25C
:1056700050E068EC70E080E090E00E946C39DDC2A0
:105680000F5F1F4FF4E08F0E911C24E0E20EF11C1F
:1056900034E0A30EB11C84E0280E311C94E0C90E46
:1056A000D11C0330110509F065CF0E947B5F60E0DB
:1056B00081E096E00E94A23F43E952E068EC70E08E
:1056C00080E090E00E946C394AEB52E068EC70E0B8
:1056D00080E090E00E946C39B0C20E94A537ADC254
:1056E00083E50E948F64182F882351F00E94BA64CA
:1056F00011E020E030E0A9010E9402CD811110E00C
:10570000812FD3D79AC29091C00095FFFCCF809390
:10571000C600319684918111F6CFEBE5F6E007C023
:105720009091C00095FFFCCF8093C6003196849184
:105730008111F6CF8091C00085FFFCCF80E280937D
:10574000C6008AE50E948F64882309F44BC00E943A
:10575000BA646B017C0120E030E040EA51EC0E9429
:1057600011D587FD0AC020E030E040EA51E4C701CE
:10577000B6010E9402CD18161CF4E3E5F6E015C050
:10578000C092DC0DD092DD0DE092DE0DF092DF0DC7
:1057900042E0C701B6010E943B802FC09091C0003B
:1057A00095FFFCCF8093C600319684918111F6CF8E
:1057B0006CEE7FEF8FEF9FEF0E9451A2EBE4F6E0DB
:1057C0008491882341F09091C00095FFFCCF809395
:1057D000C6003196F5CF64E170E080E090E00E9471
:1057E00051A20BC04091DC0D5091DD0D6091DE0D9A
:1057F0007091DF0D88E496E0CCD68091C00085FFE3
:10580000FCCF8AE08093C60018C20E9408BA15C275
:1058100081E08093C7021092C50C0E94C6AF0DC2F2
:1058200080911B13811110921B130E9449C10E9489
:10583000DCA1E4E5FFE0A8EAB5E041915191619176
:1058400071914D935D936D937D932FE0E436F20754
:10585000A1F7E6E9F6E08491882341F09091C00039
:1058600095FFFCCF8093C6003196F5CF6091540F21
:105870007091550F8091560F9091570F42E00E9402
:105880003B80E1E9F6E08491882341F09091C000EB
:1058900095FFFCCF8093C6003196F5CF6091580FED
:1058A0007091590F80915A0F90915B0F42E00E94C6
:1058B0003B80ECE8F6E08491882341F09091C000B1
:1058C00095FFFCCF8093C6003196F5CF60915C0FB9
:1058D00070915D0F80915E0F90915F0F42E00E948A
:1058E0003B80E7E8F6E08491882341F09091C00086
:1058F00095FFFCCF8093C6003196F5CF6091600F85
:105900007091610F8091620F9091630F42E00E944D
:105910003B800E94675F0E94E45F20E030E040EA45
:1059200050E460910F0B7091100B8091110B9091CE
:10593000120B0E94C6D260930F0B7093100B8093D2
:10594000110B9093120B1092070B1092080B1092F0
:10595000090B10920A0B00E010E02CE033E40093F6
:105960000B0B10930C0B20930D0B30930E0B20E0C0
:1059700030E045E253E40E9411D5181664F480E04B
:1059800090E0A5E2B3E480930F0B9093100BA093EB
:10599000110BB093120B0E94E45F0E94DCA16AE538
:1059A0008BE291E00E946DD28BE291E00E9465D281
:1059B000EBE7F6E09491992341F02091C00025FF98
:1059C000FCCF9093C6003196F5CF9091C00095FF23
:1059D000FCCF8093C6000CE211E0D801A458BB4F65
:1059E0006D017801B4E0EB0EF11CE016F10649F010
:1059F000F60161916F01C8010E946DD20F5F1F4FC8
:105A0000F4CFFCE3EF16F1E0FF0639F76091280BC5
:105A10008CE391E00E946DD26091290B8DE391E0BF
:105A20000E946DD2EEE1F3E101900020E9F78F01D1
:105A30000F511341EBE2F3E101900020E9F7CF01B0
:105A40008C5293417C01602F82E491E00E946DD2E0
:105A50006E2D83E491E00E946DD29EE1A92E93E128
:105A6000B92EC12CD12C11270C151D055CF4580141
:105A70002CEBA21A2EEFB20A89E1C82E83E1D82EB0
:105A8000FF2412C0D5018D915D01082E000C990BE9
:105A90000E94BCD6682FC6018C5B9E4F0E946DD2BF
:105AA000BFEFCB1ADB0AE0CFC60189519341EFEF7C
:105AB000CE1ADE0AE816F90684F0D60151968C91CA
:105AC000082E000C990B0E94BCD6682FC5010E94BD
:105AD0006DD2BFEFAB1ABB0AE7CF8091EE14909165
